:020000040800F2
:1000000078060020D9010008590F0008510F000898
:10001000550F0008E90200086D0F000800000000FD
:10002000000000000000000000000000610F000858
:10003000ED020008000000005D0F0008650F0008D9
:10004000F3010008F3010008F3010008F3010008C0
:10005000F3010008F3010008F3010008F3010008B0
:10006000F3010008F3010008F3010008F3010008A0
:10007000F3010008F3010008F3010008F301000890
:10008000F3010008F3010008F3010008F301000880
:10009000F3010008F3010008F3010008F301000870
:1000A000F3010008F3010008F3010008F301000860
:1000B000F3010008F3010008F3010008F301000850
:1000C000F3010008F3010008F3010008F301000840
:1000D000F3010008F3010008F3010008F301000830
:1000E000F3010008F3010008F3010008F301000820
:1000F000F3010008F3010008F3010008F301000810
:10010000F3010008F3010008F3010008F3010008FF
:10011000F3010008F3010008F3010008F3010008EF
:10012000F3010008F3010008F3010008F3010008DF
:10013000F3010008F301000800F002F800F03CF8B9
:100140000AA090E8000C82448344AAF10107DA4532
:1001500001D100F031F8AFF2090EBAE80F0013F048
:10016000010F18BFFB1A43F0010318475C0F000092
:100170007C0F0000103A24BF78C878C1FAD8520723
:1001800024BF30C830C144BF04680C607047000011
:100190000023002400250026103A28BF78C1FBD890
:1001A000520728BF30C148BF0B6070471FB500F031
:1001B0003DFF1FBD10B510BD00F058F81146FFF708
:1001C000F5FF00F0D5FE00F076F803B4FFF7F2FF7C
:1001D00003BC00F07DF8000009488047094800474B
:1001E000FEE7FEE7FEE7FEE7FEE7FEE7FEE7FEE7E7
:1001F000FEE7FEE704480549054A064B7047000044
:10020000690F0008390100087800002078060020F6
:1002100078020020780200204FF0000200B513465B
:1002200094469646203922BFA0E80C50A0E80C5016
:10023000B1F12001BFF4F7AF090728BFA0E80C50C7
:1002400048BF0CC05DF804EB890028BF40F8042BC0
:1002500008BF704748BF20F8022B11F0804F18BF2D
:1002600000F8012B7047704770477047754600F0E3
:100270002BF8AE4605006946534620F00700854638
:1002800018B020B5FFF7B6FFBDE820404FF00006DC
:100290004FF000074FF000084FF0000BAC46ACE801
:1002A000C009ACE8C009ACE8C009ACE8C00921F05D
:1002B00007018D46704710B50446AFF30080204615
:1002C000BDE81040FFF781BF0048704710000020D4
:1002D00001491820ABBEFEE7260002000048704727
:1002E0001400002070470000FEE700007047000087
:1002F000B0B5044600F010F8054640F20000C2F226
:1003000000000078611C18BF044400BF00F004F82E
:10031000401BA042FAD3B0BD40F27000C2F2000010
:100320000068704740F2000040F27001C2F2000025
:10033000C2F2000100780A681044086070470000AB
:1003400080B5032000F066F800F0A0F940F2080143
:10035000C2F2000108600F2000F008F800281CBF5E
:10036000012080BD00F028F8002080BD70B540F26B
:100370000006C2F200063178D1B1044600F086F9D9
:1003800031784FF47A72B2FBF1F1B0FBF1F000F08A
:10039000C9FD0F2C4FF0010508D838B94FF0FF30D8
:1003A00021460022002500F009F87460284670BD3F
:1003B0000125284670BD00007047000010B54EF6BC
:1003C0000C5CCEF2000CDCF80030C3F3022E8EF091
:1003D0000704042C28BF0424BEF103034FF0FF3EA2
:1003E0000EFA04F438BF0023A14399400EFA03F338
:1003F0009A4300F00F03043B1143634409010C339B
:1004000000F16042B0F1FF3FC8BF02F564431970CC
:1004100010BD00004EF60C51CEF200010A684FF6F6
:10042000FF031A4060F30A2242F0806040F0FD7042
:100430000860704740F20040C5F60000006800F414
:10044000C060704740F20040C5F60000016841F40A
:1004500080710160704700002DE9F04381B00028F1
:1004600000F0CB8044F20008C5F600080546D8F835
:1004700000000C4600F00700884215D2D8F80000B2
:1004800020F007002043C8F80000FFF745FF0646AC
:10049000D8F8000000F00700A04205D0FFF73CFFAD
:1004A000801B0228F4D977E0286808278107C5F661
:1004B000000714D5A868396821F0F00108433860B6
:1004C000FFF72AFF064600BF3868C00306D4FFF7CF
:1004D00023FF801B0228F7D95EE000BF2868810651
:1004E00015D56869D7F8001121F0F0010843C7F865
:1004F0000001FFF711FF0646D7F80001800305D47D
:10050000FFF70AFF801B0228F6D945E0286841065C
:1005100017D5A869D7F8001121F00F0141EA101092
:10052000C7F80001FFF7F8FE064600BFD7F8000144
:10053000C00305D4FFF7F0FE801B0228F6D92BE09C
:100540002868410713D5E868396821F4E061084359
:100550003860FFF7E1FE06463868800306D4FFF7EF
:10056000DBFE801B0228F7D916E000BF28680107D0
:1005700017D52869396821F4605141EAC000386014
:10058000FFF7CAFE064600BF3868400308D4FFF7ED
:10059000C3FE801B0228F7D9032001B0BDE8F08319
:1005A0002868C0071ED1D8F8000000F00700A0425C
:1005B00028D9D8F8000020F007002043C8F8000030
:1005C000FFF7AAFE054600BFD8F8000000F00700BC
:1005D000A04217D0FFF7A0FE401B02284FF00300F7
:1005E000F2D947E068684FF0B04138B3032845D0EE
:1005F000022847D10968890323D4012001B0BDE84E
:10060000F08300BF00F054F839683C2202EA9101FF
:1006100041F24802C0F60002515840F20802B0FB15
:10062000F1F140F20400C2F200000068C2F20002E0
:10063000116001B0BDE8F043FFF798BE0968890773
:10064000DBD5396821F0030108433860FFF764FE09
:10065000064641F2883900BF3868696800F00C002E
:10066000B0EB810F9FD0FFF757FE801B48454FF03E
:100670000300F1D901B0BDE8F08300BF096889012A
:10068000BBD5DEE709684905B7D5DAE780B500F0E4
:100690000FF80821C5F6000109683C2202EA910121
:1006A00041F24802C0F600025158B0FBF1F080BDA3
:1006B0000C21C5F6000151F8040C10F00C0208687A
:1006C00005D00C2A16D100F00300012812D14FF0FA
:1006D000B040036800681B0700F0080006D4D8B9D2
:1006E000D1F88800C0F3032021E000BFD0B9D1F8D1
:1006F000880014E042F20040042AC0F2F40022D044
:10070000082A1FD14FF0B0421268D2025CBF44F6F3
:100710000000C0F2E81016E04FF0B0400068002082
:1007200005E000BF4FF0B0400068C0F3031041F295
:100730008803C0F6000353F82030002A184618BF7B
:10074000002001E00020002351F8042C02F00C02EC
:100750000C2A18BF7047086800F0030242F20040FC
:10076000022AC0F2F4000AD0032A09D14FF0B042A5
:100770001268D2025CBF44F60000C0F2E8100346E3
:1007800008680A68C0F30620C2F302125843013217
:100790000968B0FBF2F0012202EB5171B0FBF1F0FD
:1007A000704700002DE9F04F81B0002800F0188359
:1007B00040F2900B0446C5F6000B5BF8880C5BF822
:1007C000841C227800F00C08900601F0030A27D45C
:1007D0002078C0075AD0B8F1080F53D0B8F10C0FE9
:1007E00008BFBAF1030F4DD04FF0B040016821F4BB
:1007F0008012D4E901131A43B1F5803F026009D099
:10080000B1F5041F40F034824FF0B0410A6842F461
:1008100000120A60016841F48031016035E200BFD6
:10082000B8F1000F1ED0B8F10C0F08BFBAF1010FDC
:1008300018D0216A4FF0B0463068002900F0668178
:1008400040F001003060FFF767FD05463068800723
:1008500000F18481FFF760FD401B02284FF0030088
:10086000F4D95BE3206A002800F0BA824FF0B0416F
:10087000A06A0A68120700F1D180DBF804100909A8
:10088000CDE000BF6068002800F0AA8220788007D1
:100890002FD5B8F1040F1FD0B8F10C0F08BFBAF173
:1008A000020F19D021694FF0B0463068002900F0DE
:1008B000FD8140F480703060FFF72EFD054600BFDB
:1008C000306840050CD4FFF727FD401B02284FF08D
:1008D0000300F5D922E300BF2069002800F08082E0
:1008E00060695BF88C1C21F0FE4141EA00604BF826
:1008F0008C0C2078000729D42078400750D4E56A72
:10090000002D00F0AA82B8F10C0F40F03D81012DBE
:1009100000F066825BF8840C216B00F003028A42CF
:1009200040F05E82616B00F070028A4240F05882B3
:10093000A16B00F4FE42B2EB012F40F05182616CDA
:1009400000F06040884240F04B8286E2A069DBF80C
:100950000410002800F0EC80E06901F010029042E1
:1009600000F0C68201F00302022A00F03982C907B2
:1009700000F0B782DBF8040020F00100CBF804009F
:10098000FFF7CAFC0546DBF80400800740F1A882A7
:10099000FFF7C2FC401B11284FF00300F3D9BDE262
:1009A000DBF87003C00511D4FFF74CFDFFF7B4FC72
:1009B000054600BFDBF87003C00507D4FFF7ACFCA9
:1009C000401B02284FF00300F4D9A7E2E06800289A
:1009D00000F07E81852801D0052805D1DBF80000D4
:1009E00040F00400CBF80000FFF796FCDBF80010A5
:1009F000054641F0010041F28836CBF8000000BF07
:100A0000DBF80000800700F11381FFF785FC401B35
:100A1000B0424FF00300F3D980E200BF096801F053
:100A2000F00141F248098842C0F600092CD93C2166
:100A300001EA900041F28801DBF87820C0F600015D
:100A4000085802F00F0159F82110B0FBF1F5FFF73B
:100A5000F1FCB0F5007F40F0BB804EF6BF20C0F245
:100A60002110854240F2E08049F23F30C0F234204C
:100A7000854240F247814AF63F60C0F2EB20854252
:100A800040F2BA80002644E14FF0B0410A6842F0DB
:100A900008020A600A6822F0F00202430A60616AF2
:100AA0005BF88C2C22F47F4242EA01214BF88C1C2B
:100AB0003C2101EA900041F28801DBF87820C0F681
:100AC0000001085802F00F0159F82110B0FBF1F5B0
:100AD000FFF7B0FCB0F5007F40F090804EF6BF20ED
:100AE000C0F22110854240F2A18049F23F30C0F2AD
:100AF0003420854240F256814AF63F60C0F2EB2036
:100B0000854240F28F80002653E100BF20F00100B3
:100B10003060FFF701FC0546306880077FF558AE6E
:100B2000FFF7FAFB401B02284FF00300F4D9F5E170
:100B300021F00100CBF80400FFF7EEFB054600BFF3
:100B4000DBF8040080077FF5D7AEFFF7E5FB401B1D
:100B500011284FF00300F3D9E0E100BF4FF0B0409F
:100B6000016841F0080101600168D4E9093221F00F
:100B7000F001114301605BF88C0C20F47F4040EAE7
:100B800003204BF88C0C23E64FF0B046306820F081
:100B900080703060FFF7C0FB022D05460CD100BF0E
:100BA0003068800140F12081FFF7B6FB401B0A2826
:100BB0004FF00300F4D9B1E13068800140F1448185
:100BC000FFF7AAFB401B0A284FF00300F4D9A5E168
:100BD0004CF6BF70C0F26A00854225D945F63F50F9
:100BE000C0F2C600854240F28D8046F23F60C0F2FE
:100BF000031085423FF646AF022084E04CF6BF70FA
:100C0000C0F26A00854211D945F63F50C0F2C600D5
:100C1000854240F2C78046F23F60C0F20310854231
:100C20003FF671AF0220BEE000206CE00020BAE089
:100C3000E06840F00400852840F01481FFF76CFB69
:100C4000DBF80010054641F0800041F28836CBF811
:100C5000000000BFDBF8000000053FF550AEFFF7D5
:100C60005BFB401BB0424FF00300F3D956E100BFDD
:100C70004FF0B0463068002920F480303060306892
:100C800020F40010306000F00581FFF745FB0546B9
:100C90004FF0B046306880033FF5F8ADFFF73CFBFE
:100CA000401B64284FF00300F4D937E120F4807032
:100CB0003060FFF731FB0546306840057FF519AE1F
:100CC000FFF72AFB401B02284FF00300F4D925E16F
:100CD000FFF722FBDBF80010064621F0800041F20E
:100CE0008837CBF8000000BFDBF80050FFF714FB9B
:100CF0002905054640F1DE80A81BB8424FF00300ED
:100D0000F2D90BE1012041F23C01C0F6000151F89B
:100D1000206044F20007C5F60007386820F007009D
:100D200030433860FFF7F8FA054600BF386800F036
:100D30000700B04206D0FFF7EFFA401B0228F5D9B2
:100D40004EE000BF4FF0B040016841F00801016083
:100D50000168D4E9093221F0F001114301605BF828
:100D60008C0C20F47F4040EA03204BF88C0CFFF7FA
:100D70009FFC5BF8881C3C2202EA910159F80110A3
:100D800040F20802B0FBF1F140F20400C2F20000B0
:100D90000068C2F200021160FFF7E8FA002840F094
:100DA000BD8015E5012041F23C01C0F6000151F87B
:100DB000206044F20007C5F60007386820F00700FD
:100DC00030433860FFF7A8FA054600BF386800F0E6
:100DD0000700B042CBD0FFF79FFA401B0228F5D99D
:100DE000012001B0BDE8F08F5BF8840C48F28C0163
:100DF000C1F2C11104F1300708408ECFD4E910656B
:100E00000843104340EA03203843304328434BF85B
:100E1000840C4FF0B045286840F0807028605BF883
:100E2000840C40F080504BF8840CFFF775FA0446B0
:100E30002868800111D4FFF76FFA001B0A284FF0D1
:100E40000300F5D96AE000BF5BF8840C4FF6FC7133
:100E5000CEF6FE6108404BF8840C002001B0BDE8DE
:100E6000F08F00BFFFF758FADBF80010054621F0BD
:100E7000800041F28836CBF80000DBF80000000566
:100E80007FF53DADFFF748FA401BB0424FF003003D
:100E9000F3D943E0FFF740FA0546306880037FF559
:100EA000F5ACFFF739FA401B64284FF00300F4D982
:100EB00034E000BFDBF8000041F2883620F001008A
:100EC000CBF80000DBF8000080077FF518ADFFF7D6
:100ED00023FA401BB0424FF00300F3D91EE000BFDD
:100EE000E069DBF8041021F010010843CBF804009E
:100EF000DBF8040040F00100CBF80400FFF70CFA27
:100F0000054600BFDBF8040080073FF5F5ACFFF7AE
:100F100003FA401B11284FF00300F3D901B0BDE8DC
:100F2000F08F0000411E0020B0EB116F1CBF0120AC
:100F300070474EF21002CEF2000251604EF623517D
:100F4000CEF20001F0230B70072190601160704712
:100F5000FEE70000FEE70000FEE70000704700002B
:100F600070470000FFF7DEB970470000FEE70000A1
:100F70009AB040F20045C5F60005FFF7E1F908AC6C
:100F8000201D4421FFF748F900260796CDE90566A4
:100F9000CDE90366CDE901662868022161F34A20A4
:100FA0002860286800F4C060009000982020089015
:100FB0000120CDE910066020CDE912062046FFF79A
:100FC000F1FB28B1EFF3108072B600BFFEE700BF5F
:100FD0004F20CDE9010601A800210796CDE903665F
:100FE0000596FFF739FA28B1EFF3108072B600BF0B
:100FF000FEE700BF4FF64C40CFF6FF70295814248F
:1010000041F0010129504FF090404FF48061C4F647
:1010100000040160202044F80C1C6060206880F00F
:10102000200020606420FFF763F9F7E710B5FFF7B1
:1010300055F94FF00001016010BD000000000000F4
:101040000100000002000000010000000300000099
:101050000500000001000000010000000600000083
:101060000A00000020000000020000000400000050
:101070000800000010000000400000008000000098
:101080000001000000020000A0860100400D0300E6
:10109000801A060000350C0040420F0080841E00BC
:1010A00000093D0000127A000024F40000366E01B1
:1010B0000048E801006CDC020000000000000000B5
:1010C0000000000000000000E81000080000002000
:1010D0001000000074010008F81000081000002043
:1010E00068060000900100080100000010000000E8
:0810F00000093D0000000000B2
:0400000508000139B5
:00000001FF
