:020000040800F2
:1000000008070020D9010008191800081118000875
:1000100015180008D9030008991D00080000000009
:10002000000000000000000000000000211800088F
:10003000DD030008000000001D1800082518000856
:10004000F3010008F3010008F3010008F3010008C0
:10005000F3010008F3010008F3010008F3010008B0
:10006000F3010008F3010008F3010008F3010008A0
:10007000F3010008F3010008F3010008F301000890
:10008000F3010008F3010008F3010008F301000880
:10009000F3010008F3010008F3010008F301000870
:1000A000F3010008F3010008F3010008F301000860
:1000B000F3010008F3010008F3010008F301000850
:1000C000F3010008F3010008F3010008F301000840
:1000D000F3010008F3010008F3010008F301000830
:1000E000F3010008F3010008F3010008F301000820
:1000F000F3010008F3010008F3010008F301000810
:10010000F3010008F3010008F3010008F3010008FF
:10011000F3010008F3010008F3010008F3010008EF
:10012000F3010008F3010008F3010008F3010008DF
:10013000F3010008F301000800F002F800F03CF8B9
:100140000AA090E8000C82448344AAF10107DA4532
:1001500001D100F031F8AFF2090EBAE80F0013F048
:10016000010F18BFFB1A43F0010318479C1E000043
:10017000BC1E0000103A24BF78C878C1FAD85207D4
:1001800024BF30C830C144BF04680C607047000011
:100190000023002400250026103A28BF78C1FBD890
:1001A000520728BF30C148BF0B6070471FB501F030
:1001B000B1FE1FBD10B510BD00F0D0F81146FFF71D
:1001C000F5FF01F0EBFD00F0EEF803B4FFF7F2FFEE
:1001D00003BC00F0F5F800000948804709480047D3
:1001E000FEE7FEE7FEE7FEE7FEE7FEE7FEE7FEE7E7
:1001F000FEE7FEE704480549054A064B7047000044
:10020000291800083901000808010020080700200B
:10021000080300200803002053EA020C00F0698064
:100220002DE9F04B4FF00006002B1FBFB3FA83F50A
:1002300003FA05F424FA05F65E4012BF1643B2FA3B
:1002400082F502FA05F4C5F120051EBF22FA05FC6D
:1002500044EA0C04203556EA044C4FEA144418BF13
:10026000641C4FF000084FF00009904271EB030C42
:1002700039D3002919BFB1FA81F701FA07F6B0FAAC
:1002800080F700FA07F6C7F120071EBF20FA07FC27
:1002900046EA0C062037B6FBF4FCA7EB0507103F37
:1002A00007F01F0BCBF120062CFA06F60CFA0BFB1D
:1002B00044BFB3460026202FA4BF5E464FF0000B7C
:1002C0005BEA060C08BF4FF0010B19EB0B0948EB7A
:1002D0000608ABFB027C06FB02CC0BFB03CCC01B6D
:1002E00071EB0C01C1E70B46024641464846BDE8AA
:1002F000F08B13B5084318BF4FF0FF300146AFF342
:100300000080BDE81C4070474FF0000200B5134666
:1003100094469646203922BFA0E80C50A0E80C5025
:10032000B1F12001BFF4F7AF090728BFA0E80C50D6
:1003300048BF0CC05DF804EB890028BF40F8042BCF
:1003400008BF704748BF20F8022B11F0804F18BF3C
:1003500000F8012B7047704770477047754600F0F2
:100360002BF8AE4605006946534620F00700854647
:1003700018B020B5FFF73EFFBDE820404FF0000663
:100380004FF000074FF000084FF0000BAC46ACE810
:10039000C009ACE8C009ACE8C009ACE8C00921F06C
:1003A00007018D46704710B50446AFF30080204624
:1003B000BDE81040FFF709BF00487047100000205B
:1003C00001491820ABBEFEE726000200704700007E
:1003D0000048704714000020FEE70000704700004E
:1003E000EFF3108072B600BFFEE70000B0B5044620
:1003F00000F0FAF8054640F20000C2F20000007872
:10040000611C18BF044400BF00F0EEF8401BA0427E
:10041000FAD3B0BD2DE9F04F84B00E680390002EE2
:1004200000F0DE8040F600020398C4F600028E461B
:1004300090424FF007004FF000044FF001074FF0DB
:1004400000054FF0000808BF0220009002914CE028
:1004500040F20041C4F60001009A884208BF012220
:1004600004F00C000721814023EA010102FA00F0A8
:1004700008430821C4F2010141F8260040F60006B5
:10048000C5F600063068DEF8041040EA0902CB0227
:1004900058BF20EA0902326070688B0240EA090204
:1004A00058BF20EA09027260D6F88000CB0340EA08
:1004B000090258BF20EA0902C6F88020D6F8840055
:1004C000890340EA090258BF20EA0902C6F88420DD
:1004D000DEF8006008F1010836FA07F005F10205C0
:1004E00007F1010704F104047AD0A7F1010A012001
:1004F00000FA0AF316EA0309EAD0DEF804B00BF0BA
:10050000030CACF10102012A1ED803984FEA4802FD
:1005100081680192032202FA05F6029AB143D2F8E9
:100520000CE0F6430EFA05F21143DDF808E08160B5
:100530004168CBF3001299430346019802FA0AF28C
:10054000114359600CE000BF0320A840039BC64341
:10055000BCF1030F284603D128464FF0030C26E0D8
:10056000D968DEF80820314082401143BCF1020F07
:10057000D9601CD102466FF0030000EA5A01194409
:1005800004F01C030F20D1F820C000FA03FE10462F
:10059000029A2CEA0E0C1269DDF808E09A4042EA51
:1005A0000C02039B0A62DEF804B00BF0030C19681E
:1005B0000CFA00F0314008431BF4403F18603FF450
:1005C00087AF08204FEA9A06C4F2010050F826309F
:1005D0000398B0F1904F7FF43BAF002240E700BF9B
:1005E00004B0BDE8F08F000040F20410C2F2000039
:1005F0000068704740F2000040F20411C2F20000AF
:10060000C2F2000100780A681044086070470000D8
:1006100080B5032000F066F800F0AAFA40F2080165
:10062000C2F2000108600F2000F008F800281CBF8B
:10063000012080BD00F028F8002080BD70B540F298
:100640000006C2F200063178D1B1044600F090FAFB
:1006500031784FF47A72B2FBF1F1B0FBF1F000F0B7
:100660000BFF0F2C4FF0010508D838B94FF0FF30C1
:1006700021460022002500F009F87460284670BD6C
:100680000125284670BD00007047000010B54EF6E9
:100690000C5CCEF2000CDCF80030C3F3022E8EF0BE
:1006A0000704042C28BF0424BEF103034FF0FF3ECF
:1006B0000EFA04F438BF0023A14399400EFA03F365
:1006C0009A4300F00F03043B1143634409010C33C8
:1006D00000F16042B0F1FF3FC8BF02F564431970FA
:1006E00010BD00004EF60C51CEF200010A684FF624
:1006F000FF031A4060F30A2242F0806040F0FD7070
:100700000860704740F20040C5F60000006800F441
:10071000C060704740F20040C5F60000016841F437
:100720008071016070470000F0B581B004468078A8
:100730008826C007C5F6000600F0AC80FFF7EAFF88
:10074000FFF752FF054600BFD6F87803C00577D4FF
:10075000FFF74AFF401B0228F6D903202168CA0789
:1007600000F09D806268336823EA124392B21A4314
:1007700032608A0740F19680A268336823EA124308
:1007800092B21A4332608A0640F18F802269336840
:1007900023F440631A4332608A0540F18980226A5B
:1007A00033684FF6FF7767EA02073B4043EA0242AD
:1007B00032604A0540F17F80626A33684FF6FF7706
:1007C00067EA02073B4043EA024232600A0575D5F8
:1007D000A26A33684FF6FF7767EA02073B4043EAB5
:1007E000024232604A066BD5626933686FF47F2734
:1007F00067EA12173B4002F47F4243EA021232607A
:100800000A065FD5A26933686FF47F2767EA12177B
:100810003B4002F47F4243EA02123260CA0553D5DC
:10082000E26933686FF47F2767EA12173B4002F4EE
:100830007F4243EA02123260CA0657D546E000BF43
:10084000B168606B01F4407181421ED0B168B2683A
:1008500021F4407342F48032B260B268890722F416
:1008600080320146B260B3600FD5FFF7BDFE05468A
:1008700041F28837B068800706D4FFF7B5FE401B09
:10088000B842F7D969E700BF616BB06820F44070E7
:100890000843B06000202168CA077FF463AF8A076D
:1008A0003FF56AAF8A063FF571AF8A053FF577AF2E
:1008B0004A053FF581AF0A053FF58AAF4A0693D452
:1008C0000A069FD4CA05ABD4CA060FD5E2683368BE
:1008D000B2F5807F23F4407343EA0203336005D10D
:1008E00056F87C2C42F0807246F87C2C0A0407D51E
:1008F000226B336823F0404343EA020333609AB12A
:10090000490419D5E16A3268B1F1005F22F0405222
:1009100042EA010232600FD156F87C1C41F480316A
:1009200046F87C1C08E000BF56F87C2C42F0807230
:1009300046F87C2C4904E5D401B0F0BD2DE9F04324
:1009400081B0002800F0CB8044F20008C5F6000812
:100950000546D8F800000C4600F00700884215D282
:10096000D8F8000020F007002043C8F80000FFF787
:100970003BFE0646D8F8000000F00700A04205D074
:10098000FFF732FE801B0228F4D977E02868082799
:100990008107C5F6000714D5A868396821F0F00171
:1009A00008433860FFF720FE064600BF3868C003E2
:1009B00006D4FFF719FE801B0228F7D95EE000BFBE
:1009C0002868810615D56869D7F8001121F0F00173
:1009D0000843C7F80001FFF707FE0646D7F80001F5
:1009E000800305D4FFF700FE801B0228F6D945E0FE
:1009F0002868410617D5A869D7F8001121F00F0122
:100A000041EA1010C7F80001FFF7EEFD064600BFEF
:100A1000D7F80001C00305D4FFF7E6FD801B0228CC
:100A2000F6D92BE02868410713D5E868396821F426
:100A3000E06108433860FFF7D7FD06463868800359
:100A400006D4FFF7D1FD801B0228F7D916E000BFBE
:100A50002868010717D52869396821F4605141EAEF
:100A6000C0003860FFF7C0FD064600BF386840038D
:100A700008D4FFF7B9FD801B0228F7D9032001B085
:100A8000BDE8F0832868C0071ED1D8F8000000F048
:100A90000700A04228D9D8F8000020F00700204322
:100AA000C8F80000FFF7A0FD054600BFD8F8000019
:100AB00000F00700A04217D0FFF796FD401B022868
:100AC0004FF00300F2D947E068684FF0B04138B307
:100AD000032845D0022847D10968890323D401207F
:100AE00001B0BDE8F08300BF00F08CF839683C220B
:100AF00002EA910141F63072C0F60002515840F20C
:100B00000802B0FBF1F140F20400C2F200000068FC
:100B1000C2F20002116001B0BDE8F043FFF78EBDE4
:100B200009688907DBD5396821F00301084338607B
:100B3000FFF75AFD064641F2883900BF38686968F8
:100B400000F00C00B0EB810F9FD0FFF74DFD801B34
:100B500048454FF00300F1D901B0BDE8F08300BF74
:100B600009688901BBD5DEE709684905B7D5DAE729
:100B700080B500F047F80821C5F6000109683C225D
:100B800002EA910141F63072C0F600025158B0FB02
:100B9000F1F080BD80B500F035F80821C5F6000100
:100BA0000A683C2303EA920241F63073C0F6000360
:100BB0009A580968B0FBF2F041F67072C1F3022155
:100BC000C0F6000252F82110C84080BD80B500F088
:100BD00019F80821C5F600010A683C2303EA9202CD
:100BE00041F63073C0F600039A580968B0FBF2F082
:100BF00041F67072C1F3C221C0F6000252F8211012
:100C0000C84080BD0C21C5F6000151F8040C10F05D
:100C10000C02086805D00C2A16D100F00300012848
:100C200012D14FF0B040036800681B0700F00800C5
:100C300006D4D8B9D1F88800C0F3032021E000BF62
:100C4000D0B9D1F8880014E042F20040042AC0F282
:100C5000F40022D0082A1FD14FF0B0421268D2020D
:100C60005CBF44F60000C0F2E81016E04FF0B04060
:100C70000068002005E000BF4FF0B0400068C0F3FE
:100C8000031041F69073C0F6000353F82030002A99
:100C9000184618BF002001E00020002351F8042C62
:100CA00002F00C020C2A18BF7047086800F003021B
:100CB00042F20040022AC0F2F4000AD0032A09D10D
:100CC0004FF0B0421268D2025CBF44F60000C0F29E
:100CD000E810034608680A68C0F30620C2F302124F
:100CE000584301320968B0FBF2F0012202EB517166
:100CF000B0FBF1F0704700002DE9F04F81B0002803
:100D000000F0188340F2900B0446C5F6000B5BF828
:100D1000880C5BF8841C227800F00C08900601F027
:100D2000030A27D42078C0075AD0B8F1080F53D04F
:100D3000B8F10C0F08BFBAF1030F4DD04FF0B0401F
:100D4000016821F48012D4E901131A43B1F5803F00
:100D5000026009D0B1F5041F40F034824FF0B04179
:100D60000A6842F400120A60016841F480310160AF
:100D700035E200BFB8F1000F1ED0B8F10C0F08BF6C
:100D8000BAF1010F18D0216A4FF0B046306800293F
:100D900000F0668140F001003060FFF725FC054659
:100DA0003068800700F18481FFF71EFC401B022899
:100DB0004FF00300F4D95BE3206A002800F0BA8208
:100DC0004FF0B041A06A0A68120700F1D180DBF849
:100DD00004100909CDE000BF6068002800F0AA8275
:100DE000207880072FD5B8F1040F1FD0B8F10C0F71
:100DF00008BFBAF1020F19D021694FF0B046306830
:100E0000002900F0FD8140F480703060FFF7ECFBBA
:100E1000054600BF306840050CD4FFF7E5FB401BDA
:100E200002284FF00300F5D922E300BF2069002813
:100E300000F0808260695BF88C1C21F0FE4141EA81
:100E400000604BF88C0C2078000729D420784007EC
:100E500050D4E56A002D00F0AA82B8F10C0F40F0E2
:100E60003D81012D00F066825BF8840C216B00F05F
:100E700003028A4240F05E82616B00F070028A4297
:100E800040F05882A16B00F4FE42B2EB012F40F01B
:100E90005182616C00F06040884240F04B8286E2F3
:100EA000A069DBF80410002800F0EC80E06901F094
:100EB0001002904200F0C68201F00302022A00F004
:100EC0003982C90700F0B782DBF8040020F0010086
:100ED000CBF80400FFF788FB0546DBF80400800729
:100EE00040F1A882FFF780FB401B11284FF0030060
:100EF000F3D9BDE2DBF87003C00511D4FFF70AFC9B
:100F0000FFF772FB054600BFDBF87003C00507D48E
:100F1000FFF76AFB401B02284FF00300F4D9A7E259
:100F2000E068002800F07E81852801D0052805D1E1
:100F3000DBF8000040F00400CBF80000FFF754FBA2
:100F4000DBF80010054641F0010041F28836CBF88D
:100F5000000000BFDBF80000800700F11381FFF7FD
:100F600043FB401BB0424FF00300F3D980E200BFC7
:100F7000096801F0F00141F630798842C0F60009B5
:100F80002CD93C2101EA900041F69071DBF87820E1
:100F9000C0F60001085802F00F0159F82110B0FB0B
:100FA000F1F5FFF7AFFBB0F5007F40F0BB804EF6E8
:100FB000BF20C0F22110854240F2E08049F23F306C
:100FC000C0F23420854240F247814AF63F60C0F2C9
:100FD000EB20854240F2BA80002644E14FF0B04158
:100FE0000A6842F008020A600A6822F0F00202432E
:100FF0000A60616A5BF88C2C22F47F4242EA01218C
:101000004BF88C1C3C2101EA900041F69071DBF812
:101010007820C0F60001085802F00F0159F821109D
:10102000B0FBF1F5FFF76EFBB0F5007F40F090806C
:101030004EF6BF20C0F22110854240F2A18049F255
:101040003F30C0F23420854240F256814AF63F607C
:10105000C0F2EB20854240F28F80002653E100BFB2
:1010600020F001003060FFF7BFFA054630688007C6
:101070007FF558AEFFF7B8FA401B02284FF0030087
:10108000F4D9F5E121F00100CBF80400FFF7ACFA48
:10109000054600BFDBF8040080077FF5D7AEFFF7F9
:1010A000A3FA401B11284FF00300F3D9E0E100BF81
:1010B0004FF0B040016841F0080101600168D4E9D7
:1010C000093221F0F001114301605BF88C0C20F42F
:1010D0007F4040EA03204BF88C0C23E64FF0B046EB
:1010E000306820F080703060FFF77EFA022D0546F0
:1010F0000CD100BF3068800140F12081FFF774FA05
:10110000401B0A284FF00300F4D9B1E13068800198
:1011100040F14481FFF768FA401B0A284FF00300B2
:10112000F4D9A5E14CF6BF70C0F26A00854225D91A
:1011300045F63F50C0F2C600854240F28D8046F22F
:101140003F60C0F2031085423FF646AF022084E0C4
:101150004CF6BF70C0F26A00854211D945F63F5087
:10116000C0F2C600854240F2C78046F23F60C0F23E
:10117000031085423FF671AF0220BEE000206CE014
:101180000020BAE0E06840F00400852840F01481B7
:10119000FFF72AFADBF80010054641F0800041F223
:1011A0008836CBF8000000BFDBF8000000053FF5F3
:1011B00050AEFFF719FA401BB0424FF00300F3D9CD
:1011C00056E100BF4FF0B0463068002920F480306F
:1011D0003060306820F40010306000F00581FFF7C7
:1011E00003FA05464FF0B046306880033FF5F8AD8E
:1011F000FFF7FAF9401B64284FF00300F4D937E1F8
:1012000020F480703060FFF7EFF905463068400544
:101210007FF519AEFFF7E8F9401B02284FF00300F5
:10122000F4D925E1FFF7E0F9DBF80010064621F0DC
:10123000800041F28837CBF8000000BFDBF8005097
:10124000FFF7D2F92905054640F1DE80A81BB84218
:101250004FF00300F2D90BE1012041F62471C0F6F2
:10126000000151F8206044F20007C5F60007386815
:1012700020F0070030433860FFF7B6F9054600BF9D
:10128000386800F00700B04206D0FFF7ADF9401B08
:101290000228F5D94EE000BF4FF0B040016841F0A0
:1012A000080101600168D4E9093221F0F00111431D
:1012B00001605BF88C0C20F47F4040EA03204BF87F
:1012C0008C0CFFF79FFC5BF8881C3C2202EA910122
:1012D00059F8011040F20802B0FBF1F140F20400AD
:1012E000C2F200000068C2F200021160FFF7A6F926
:1012F000002840F0BD8015E5012041F62471C0F6BC
:10130000000151F8206044F20007C5F60007386874
:1013100020F0070030433860FFF766F9054600BF4C
:10132000386800F00700B042CBD0FFF75DF9401BF2
:101330000228F5D9012001B0BDE8F08F5BF8840CDC
:1013400048F28C01C1F2C11104F1300708408ECF80
:10135000D4E910650843104340EA03203843304382
:1013600028434BF8840C4FF0B045286840F080705B
:1013700028605BF8840C40F080504BF8840CFFF739
:1013800033F904462868800111D4FFF72DF9001BBA
:101390000A284FF00300F5D96AE000BF5BF8840C1F
:1013A0004FF6FC71CEF6FE6108404BF8840C00202D
:1013B00001B0BDE8F08F00BFFFF716F9DBF80010B1
:1013C000054621F0800041F28836CBF80000DBF8BA
:1013D000000000057FF53DADFFF706F9401BB04268
:1013E0004FF00300F3D943E0FFF7FEF805463068FD
:1013F00080037FF5F5ACFFF7F7F8401B64284FF04A
:101400000300F4D934E000BFDBF8000041F2883675
:1014100020F00100CBF80000DBF8000080077FF52A
:1014200018ADFFF7E1F8401BB0424FF00300F3D9CD
:101430001EE000BFE069DBF8041021F01001084352
:10144000CBF80400DBF8040040F00100CBF8040006
:10145000FFF7CAF8054600BFDBF8040080073FF538
:10146000F5ACFFF7C1F8401B11284FF00300F3D98A
:1014700001B0BDE8F08F0000411E0020B0EB116FFD
:101480001CBF012070474EF21002CEF200025160E4
:101490004EF62351CEF20001F0230B70072190602D
:1014A0001160704790F88410012904BF0220704732
:1014B0002421C0F8881002681168136823F0010322
:1014C000136021F000530021416613602022C0F810
:1014D000882080F88410084670470000B0B590F866
:1014E0008420012A04BF0220B0BD2422C0F8882035
:1014F0000268D0F864E0D2F800C01368BEF1000FB3
:1015000023F001031360936823F0606341EA030151
:10151000916019D09368916841F6F87E490FC0F642
:10152000000E42F200051EF80140C0F60005695C9D
:10153000C3F34263E400B4FBF1F11EF80340EB5C3B
:10154000E500B5FBF3F301E001210123A0F86A10E7
:101550002021A0F86830C2F800C0C0F8881000212F
:1015600080F884100846B0BDB0B590F88420012AF8
:1015700004BF0220B0BD2422C0F888200268D0F841
:1015800064E0D2F800C01368BEF1000F23F001033D
:101590001360936823F0604341EA0301916019D01E
:1015A0009368916841F6F87E490FC0F6000E42F24A
:1015B00000051EF80140C0F60005695CC3F34263F4
:1015C000E400B4FBF1F11EF80340EB5CE500B5FB71
:1015D000F3F301E001210123A0F86A102021A0F813
:1015E0006830C2F800C0C0F88810002180F884106C
:1015F0000846B0BDB0B582B0B0B10446D0F888009E
:1016000028B9002084F88400204600F059F82420EE
:10161000C4F888002068016821F0010101602046BB
:1016200000F078F9012803D1012002B0B0BD00BF5D
:10163000A06A10B1204600F0F9F82068416821F452
:1016400090414160816821F02A018160016841F088
:10165000010101600020C4F89000FEF7C5FF216879
:1016600005460A6812070CD56FF07E4C20464FF4F1
:10167000001100222B46CDF800C000F083FA78B9A3
:101680002168086840070FD56FF07E4C20464FF464
:10169000800100222B46CDF800C000F073FA18B18B
:1016A000032002B0B0BD00BF2020C4F88800C4F8F9
:1016B0008C000020E066206784F8840002B0B0BD92
:1016C00010B594B0044600201290CDE91000CDE989
:1016D0000E00684604303421FEF716FE206844F2FE
:1016E0000041C4F20001884202D014B010BD00BF16
:1016F0004FF440200224029068460094FFF714F84B
:10170000002818BFFEF76CFE4C20C5F60000C1682B
:1017100041F40031C160C16801F4003113911399A3
:10172000016841F00101016000680EA900F00100AC
:10173000139013980C20CDE90E040020CDE9100081
:10174000072012904FF09040FEF764FE14B010BDD9
:101750002DE9F04182B00446D0F8880020283FD11E
:101760000E4600294FF001004ED01746002A4BD0FC
:101770004FF0000821201D46C4F89080C4F888006E
:10178000FEF732FFA4F85470A4F85670A16807461B
:10179000B1F5805F0FD12069002814BF3046B046F4
:1017A000064608E016F8010B21688862B4F8560076
:1017B0000138A4F85600B4F85600A8B1204680219C
:1017C00000223B46009500F0DDF9A8B9002EE9D1D2
:1017D00038F8020B21686FF35F2088620026E5E786
:1017E000022002B0BDE8F0812046402100223B46A5
:1017F000009500F0C7F918B1032002B0BDE8F081F0
:101800002020C4F88800002002B0BDE8F08100006C
:10181000FEE70000FEE70000FEE700007047000062
:1018200070470000FEF7E6BE7047000080B5816A91
:10183000CA070DD18A0716D44A071FD40A0728D42D
:10184000CA0631D48A063AD44A0658D542E000BFC7
:101850000268D0F82CC0536823F4003343EA0C0329
:1018600053608A07E8D50268D0F830C0536823F483
:10187000803343EA0C0353604A07DFD50268D0F88F
:1018800034C0536823F4802343EA0C0353600A07EF
:10189000D6D50268D0F838C0536823F4004343EA31
:1018A0000C035360CA06CDD50268D0F83CC09368DB
:1018B00023F4805343EA0C0393608A06C4D502687C
:1018C000D0F840C0936823F4005343EA0C039360BC
:1018D0004A0614D50268D0F844C05368BCF5801F8E
:1018E00023F4801343EA0C03536008D1D2F804C0F8
:1018F000D0F848E02CF4C00343EA0E035360090615
:1019000058BF80BD0168C06C4A6822F400221043B1
:10191000486080BD70B504462269D4E902130068AE
:101920000A436169E6691143026846F6F315CCF68D
:10193000FF7531432A4011430160416848F2000EAF
:1019400021F4405119434160A269C4F2000E704570
:101950001CBF216A0A4381684FF2FF43C1F2FF13A3
:10196000194011438160C16AD4F824C044F2004296
:1019700021F00F01C4F2000241EA0C019042C16261
:101980000ED0704512D043F60001C4F20101884226
:1019900046D18821C5F600010A6876A30FE000BF92
:1019A0008821C5F6000109688A0804E08821C5F687
:1019B000000109688A0A41F6E873C0F6000302F0E4
:1019C000030153F82120704542F20040C0F2F400B8
:1019D0002DD0B6F5004F11D1082A4FF0010100F2C9
:1019E000C080DFE802F0056977BE6FBEBEBE75003D
:1019F000FFF7D0F8002840F0628067E0082A4FF037
:101A0000010100F2AE80DFE802F0058593AC8BACFB
:101A1000ACAC9100FFF7BEF8002840F07E8083E078
:101A20001022704542F20040C0F2F400D1D1082AE1
:101A30004FF0010100F29580DFE802F00693149365
:101A40000C939393120000BFFFF7A4F830B1D4F8C1
:101A500024C007E0FFF7D6F80028F8D1002180E085
:101A60004FF4004041F6D071C0F6000131F81C106F
:101A70006268B0FBF1F002EB420188424FF00101D5
:101A80006FD3130398426CD8010E000210EB520082
:101A900041F100010023FEF7BFFB4FF6FF42A0F526
:101AA0004071C0F20F02914204D82168C860002141
:101AB00057E000BF012154E0FFF788F830B1D4F8B7
:101AC00024C007E0FFF79EF80028F8D1002148E085
:101AD0004FF4004041F6D071C0F6000131F81C10FF
:101AE0006268B0FBF1F0510801EB4000B0FBF2F08E
:101AF0004FF6EF72A0F11001914209D84FF6F07144
:101B00000140C0F3420022680844D060002128E070
:101B1000012126E0FFF75AF830B1D4F824C007E0DD
:101B2000FFF770F80028F8D100211AE04FF40040C8
:101B300041F6D071C0F6000131F81C104FF6EF727B
:101B4000B0FBF1F0616800EB5100B0FBF1F0A0F1E7
:101B50001001914204D82168C860002101E000BF53
:101B600001214FF00110A066002208466267A267BB
:101B700070BD00BF01000000040000000200000072
:101B8000080000002DE9F041044600681546C269CE
:101B90000E461140891BB1FA81F14909A94240F072
:101BA0009C80DDF81880B8F1000F27D018F10101F2
:101BB0007CD100BFC1693140891BB1FA81F149096B
:101BC000A94240F08A80C1693140891BB1FA81F194
:101BD0004909A94240F08180C1693140891BB1FAAD
:101BE00081F14909A94278D1C1693140891BB1FA13
:101BF00081F14909A942DDD06FE000BFFEF7F4FC96
:101C0000206850E8000F216820F4D07041E80002FD
:101C1000BAB3206850E8000F216820F4D07041E882
:101C2000000272B3206850E8000F216820F4D070E1
:101C300041E800022AB3206850E8000F216820F430
:101C4000D07041E80002002ADAD11AE0206850E89A
:101C5000020F216820F0010041E80202DAB1206899
:101C600050E8020F216820F0010041E8020292B121
:101C7000206850E8020F216820F0010041E80202CC
:101C80004AB1206850E8020F216820F0010041E8C5
:101C90000202002ADAD12020C4F88800C4F88C009F
:101CA000002084F884000320BDE8F0811F4600BFB7
:101CB000FEF79AFCC01B4045A2D82068016849077E
:101CC00044BFC1695FEA01510AD4C0693040801B3A
:101CD000B0FA80F04009A842EAD00020BDE8F081C7
:101CE0004FF40061016200BF50E8000F216820F44A
:101CF000D07041E80002C2B3206850E8000F2168AC
:101D000020F4D07041E800027AB3206850E8000F58
:101D1000216820F4D07041E8000232B3206850E816
:101D2000000F216820F4D07041E80002EAB1206879
:101D3000DAE700BF206850E8020F216820F00100B8
:101D400041E80202DAB1206850E8020F216820F071
:101D5000010041E8020292B1206850E8020F2168B8
:101D600020F0010041E802024AB1206850E8020F69
:101D7000216820F0010041E80202002ADAD1202087
:101D8000C4F88800C4F88C00C4F89000002084F8DF
:101D900084000320BDE8F081FEE70000A0B05748B2
:101DA0004C25009055A0061D4ECE40690DF1040C47
:101DB000C5F600058CE84E000590FEF729FC0EAC38
:101DC000201D4421FEF7A0FA00260D96CDE90B66F2
:101DD000CDE90966CDE90766D5F8B403022161F3C0
:101DE0004A20C5F8B403D5F8B40300F4C0600690E7
:101DF000069820200E900120CDE916066020CDE93E
:101E000018062046FEF778FF20B1EFF3108072B677
:101E1000FEE700BF4F20CDE9070607A800210D9679
:101E2000CDE909660B96FEF789FD28B1EFF3108026
:101E300072B600BFFEE700BF286844F2004140F0E0
:101E4000010028602868C4F2000100F001000E9033
:101E50000E9840F27000C2F2000000230C264FF4EE
:101E6000E13280E80E00C0E90333C0E90563C0E950
:101E70000733C0E90933FFF7BDFB28B1EFF310804A
:101E800072B600BFFEE700BF40F27000C2F2000071
:101E90000021FFF769FB28B1EFF3108072B600BF95
:101EA000FEE700BF40F27000C2F200000021FFF721
:101EB00015FB28B1EFF3108072B600BFFEE700BF3C
:101EC00040F27000C2F20000FFF7ECFA20B1EFF32D
:101ED000108072B6FEE700BF40F27004C2F2000448
:101EE0006D4600BF2046294616224FF6FF73FFF7C6
:101EF0002FFC4FF4FA70FEF779FAF3E748656C6C43
:101F00006F2057696C6C6F7742656520576F726CF4
:101F10006400000010B5FEF75BFA4FF000010160AD
:101F200010BD0000000000000100000002000000E1
:101F30000100000003000000050000000100000097
:101F400001000000060000000A0000002000000060
:101F50000200000004000000080000001000000063
:101F600040000000800000000001000000020000AE
:101F70000000000000000000000000000000000061
:101F80000100000002000000030000000400000047
:101F9000A0860100400D0300801A060000350C00E9
:101FA00040420F0080841E0000093D0000127A00AC
:101FB0000024F40000366E010048E801006CDC02E9
:101FC0000000000000000000000000000000000011
:101FD000010002000400060008000A000C001000C6
:101FE000200040008000000100000000040000000C
:101FF00002000000080000000101010307010000C9
:102000000804020408010101282000080000002043
:1020100010000000740100083820000810000020A3
:10202000F806000090010008010000001000000008
:0820300000093D000000000062
:0400000508000139B5
:00000001FF
