:020000040800F2
:1000000058070020E10100084D1F0008451F0008A7
:10001000491F0008D9050008252500080000000038
:10002000000000000000000000000000551F000854
:10003000DD05000800000000511F0008591F0008DE
:10004000FB010008FB010008FB010008FB010008A0
:10005000FB010008FB010008FB010008FB01000890
:10006000FB010008FB010008FB010008FB01000880
:10007000FB010008FB010008FB010008FB01000870
:10008000FB010008FB010008FB010008FB01000860
:10009000FB010008FB010008FB010008FB01000850
:1000A000FB010008FB010008FB010008611F0008BC
:1000B000FB010008FB010008FB010008FB01000830
:1000C000FB010008FB010008FB010008FB01000820
:1000D000FB010008FB010008FB010008FB01000810
:1000E000FB010008FB010008FB010008FB01000800
:1000F000FB010008FB010008FB010008FB010008F0
:10010000FB010008FB010008FB010008FB010008DF
:10011000FB010008FB010008FB010008FB010008CF
:10012000FB010008FB010008FB010008FB010008BF
:10013000FB010008FB01000800F002F800F041F8A4
:100140000AA090E8000C82448344AAF10107DA4532
:1001500001D100F036F8AFF2090EBAE80F0013F043
:10016000010F18BFFB1A43F001031847682600006F
:1001700088260000103A24BF78C878C1FAD8520700
:1001800024BF30C830C144BF04680C607047000011
:100190000023002400250026103A28BF78C1FBD890
:1001A000520728BF30C148BF0B607047642900F078
:1001B000F780002070471FB502F093FA1FBD10B5FD
:1001C00010BD00F0CAF91146FFF7F5FF02F0ACF9D7
:1001D00000F0E8F903B4FFF7F2FF03BC00F0F0F918
:1001E0000948804709480047FEE7FEE7FEE7FEE7CB
:1001F000FEE7FEE7FEE7FEE7FEE7FEE70448054907
:10020000054A064B704700005D1F000839010008D1
:1002100058010020580700205803002058030020F0
:1002200053EA020C00F069802DE9F04B4FF0000614
:10023000002B1FBFB3FA83F503FA05F424FA05F681
:100240005E4012BF1643B2FA82F502FA05F4C5F118
:1002500020051EBF22FA05FC44EA0C04203556EAAC
:10026000044C4FEA144418BF641C4FF000084FF0D0
:100270000009904271EB030C39D3002919BFB1FA80
:1002800081F701FA07F6B0FA80F700FA07F6C7F12E
:1002900020071EBF20FA07FC46EA0C062037B6FBF3
:1002A000F4FCA7EB0507103F07F01F0BCBF120066E
:1002B0002CFA06F60CFA0BFB44BFB3460026202F9F
:1002C000A4BF5E464FF0000B5BEA060C08BF4FF080
:1002D000010B19EB0B0948EB0608ABFB027C06FB94
:1002E00002CC0BFB03CCC01B71EB0C01C1E70B462E
:1002F000024641464846BDE8F08B13B5084318BF97
:100300004FF0FF300146AFF30080BDE81C4070475E
:100310000FB41CB5074B06AA7B44694600900598AC
:1003200000F003F90020694600F012F91CBC5DF8EA
:1003300014FB0000350200002DE9F0410E46044692
:10034000002020622046E168884730B3252805D088
:10035000D4E901219047206A401CF2E7E168204679
:1003600000278847050018D0A5F14100192802D8B8
:1003700020354FF400673246294620462760FFF7B4
:1003800015FF40B1012804D0F61D26F007060836F7
:10039000D8E7361DD6E72846DAE7206ABDE8F081BF
:1003A0002DE9F0410646002410687529314616A54E
:1003B00010D0AFF30080002802DA404213A507E016
:1003C00031688A0701D512A502E0490704D511A5B5
:1003D000012401E0AFF3008000210A2206F1240786
:1003E00009E0B0FBF2FCB0FBF2F302FB1C00303082
:1003F00078541846491C0028F3D123462A46304633
:10040000BDE8F04100F032B8000000002D0000000F
:100410002B000000200000004FF0000200B5134642
:1004200094469646203922BFA0E80C50A0E80C5014
:10043000B1F12001BFF4F7AF090728BFA0E80C50C5
:1004400048BF0CC05DF804EB890028BF40F8042BBE
:1004500008BF704748BF20F8022B11F0804F18BF2B
:1004600000F8012B70477047704770472DE9F0473F
:100470000D4699469246044600F124080168880614
:1004800004D5E06921F01001216000E00120A842BC
:1004900001DD471B00E00027A1697A1902EB090082
:1004A000081AA0612078C00602D42046AFF300806D
:1004B000002608E0D4E901211AF806009047206AD6
:1004C000401C761C20624E45F4DB2078C0060AD51D
:1004D0002046AFF3008006E0D4E9012130209047A8
:1004E000206A401C2062381EA7F10107F4DC07E0F7
:1004F000D4E9012118F805009047206A401C2062C9
:10050000281EA5F10105F3DC2046AFF3008020781A
:10051000000602D50220BDE8F0870120FBE70000BD
:1005200001694A1C02610878704700B58FB0CDE9B7
:1005300001310021059105497944CDE903101146A7
:100540006846FFF7F9FE0FB000BD0000E5FFFFFFB2
:100550000A6802F8010B0A607047754600F02CF833
:10056000AE4605006946534620F00700854618B0A0
:1005700020B5FFF743FEBDE820404FF000064FF0E6
:1005800000074FF000084FF0000BAC46ACE8C00984
:10059000ACE8C009ACE8C009ACE8C00921F007012B
:1005A0008D46704710B50446AFF300802046BDE885
:1005B0001040FFF70FBE00000048704710000020F9
:1005C00001491820ABBEFEE726000200704700007C
:1005D0000048704714000020FEE70000704700004C
:1005E000EFF3108072B600BFFEE700002DE9F04F78
:1005F00084B00E680390002E00F0DE8040F600020A
:100600000398C4F600028E4690424FF007004FF068
:1006100000044FF001074FF000054FF0000808BF3D
:100620000220009002914CE040F20041C4F600012B
:10063000009A884208BF012204F00C000721814083
:1006400023EA010102FA00F008430821C4F2010183
:1006500041F8260040F60006C5F600063068DEF8D0
:10066000041040EA0902CB0258BF20EA09023260B6
:1006700070688B0240EA090258BF20EA09027260E2
:10068000D6F88000CB0340EA090258BF20EA0902ED
:10069000C6F88020D6F88400890340EA090258BFD2
:1006A00020EA0902C6F88420DEF8006008F101089B
:1006B00036FA07F005F1020507F1010704F1040419
:1006C0007AD0A7F1010A012000FA0AF316EA030919
:1006D000EAD0DEF804B00BF0030CACF10102012A01
:1006E0001ED803984FEA480281680192032202FA59
:1006F00005F6029AB143D2F80CE0F6430EFA05F281
:100700001143DDF808E081604168CBF300129943A2
:100710000346019802FA0AF2114359600CE000BF47
:100720000320A840039BC643BCF1030F284603D116
:1007300028464FF0030C26E0D968DEF80820314047
:1007400082401143BCF1020FD9601CD102466FF008
:10075000030000EA5A01194404F01C030F20D1F8E9
:1007600020C000FA03FE1046029A2CEA0E0C126911
:10077000DDF808E09A4042EA0C02039B0A62DEF8C8
:1007800004B00BF0030C19680CFA00F03140084378
:100790001BF4403F18603FF487AF08204FEA9A06E9
:1007A000C4F2010050F826300398B0F1904F7FF466
:1007B0003BAF002240E700BF04B0BDE8F08F00006F
:1007C00040F25410C2F200000068704740F200008E
:1007D00040F25411C2F20000C2F2000100780A682F
:1007E000104408607047000080B5032000F076F8E0
:1007F00000F0BAFA40F20801C2F2000108600F20CE
:1008000000F008F800281CBF012080BD00F028F887
:10081000002080BD70B540F20006C2F200063178BB
:10082000D1B1044600F0A0FA31784FF47A72B2FBED
:10083000F1F1B0FBF1F000F01BFF0F2C4FF00105C0
:1008400008D838B94FF0FF3021460022002500F0CB
:1008500019F87460284670BD0125284670BD000057
:1008600070470000002848BF704700F01F010122B8
:1008700002FA01F14EF200124009CEF2000242F8F3
:100880002010704710B54EF60C5CCEF2000CDCF870
:100890000030C3F3022E8EF00704042C28BF04247A
:1008A000BEF103034FF0FF3E0EFA04F438BF0023FD
:1008B000A14399400EFA03F39A4300F00F03043B5F
:1008C0001143634409010C3300F16042B0F1FF3F72
:1008D000C8BF02F56443197010BD00004EF60C51FC
:1008E000CEF200010A684FF6FF031A4060F30A22B5
:1008F00042F0806040F0FD700860704740F20040B8
:10090000C5F60000006800F4C060704740F2004087
:10091000C5F60000016841F4807101607047000075
:10092000F0B581B0044680788826C007C5F6000679
:1009300000F0AC80FFF7EAFFFFF742FF054600BF7B
:10094000D6F87803C00577D4FFF73AFF401B02289A
:10095000F6D903202168CA0700F09D8062683368D9
:1009600023EA124392B21A4332608A0740F196801A
:10097000A268336823EA124392B21A4332608A06AD
:1009800040F18F802269336823F440631A43326058
:100990008A0540F18980226A33684FF6FF7767EA5B
:1009A00002073B4043EA024232604A0540F17F8041
:1009B000626A33684FF6FF7767EA02073B4043EA13
:1009C000024232600A0575D5A26A33684FF6FF7796
:1009D00067EA02073B4043EA024232604A066BD5AF
:1009E000626933686FF47F2767EA12173B4002F4AD
:1009F0007F4243EA021232600A065FD5A269336879
:100A00006FF47F2767EA12173B4002F47F4243EA04
:100A100002123260CA0553D5E26933686FF47F274A
:100A200067EA12173B4002F47F4243EA0212326047
:100A3000CA0657D546E000BFB168606B01F440714B
:100A400081421ED0B168B26821F4407342F4803212
:100A5000B260B268890722F480320146B260B360A6
:100A60000FD5FFF7ADFE054641F28837B068800725
:100A700006D4FFF7A5FE401BB842F7D969E700BFCF
:100A8000616BB06820F440700843B06000202168BA
:100A9000CA077FF463AF8A073FF56AAF8A063FF55E
:100AA00071AF8A053FF577AF4A053FF581AF0A057B
:100AB0003FF58AAF4A0693D40A069FD4CA05ABD441
:100AC000CA060FD5E2683368B2F5807F23F440731D
:100AD00043EA0203336005D156F87C2C42F0807261
:100AE00046F87C2C0A0407D5226B336823F0404378
:100AF00043EA020333609AB1490419D5E16A3268C6
:100B0000B1F1005F22F0405242EA010232600FD19F
:100B100056F87C1C41F4803146F87C1C08E000BF8C
:100B200056F87C2C42F0807246F87C2C4904E5D4BF
:100B300001B0F0BD2DE9F04381B0002800F0CB807A
:100B400044F20008C5F600080546D8F800000C4637
:100B500000F00700884215D2D8F8000020F0070006
:100B60002043C8F80000FFF72BFE0646D8F8000027
:100B700000F00700A04205D0FFF722FE801B0228EC
:100B8000F4D977E0286808278107C5F6000714D54F
:100B9000A868396821F0F00108433860FFF710FEBB
:100BA000064600BF3868C00306D4FFF709FE801B65
:100BB0000228F7D95EE000BF2868810615D568696C
:100BC000D7F8001121F0F0010843C7F80001FFF742
:100BD000F7FD0646D7F80001800305D4FFF7F0FDC6
:100BE000801B0228F6D945E02868410617D5A86978
:100BF000D7F8001121F00F0141EA1010C7F80001E9
:100C0000FFF7DEFD064600BFD7F80001C00305D49C
:100C1000FFF7D6FD801B0228F6D92BE02868410794
:100C200013D5E868396821F4E06108433860FFF7BC
:100C3000C7FD06463868800306D4FFF7C1FD801B58
:100C40000228F7D916E000BF2868010717D52869E0
:100C5000396821F4605141EAC0003860FFF7B0FD07
:100C6000064600BF3868400308D4FFF7A9FD801B83
:100C70000228F7D9032001B0BDE8F0832868C00737
:100C80001ED1D8F8000000F00700A04228D9D8F8FB
:100C9000000020F007002043C8F80000FFF790FD97
:100CA000054600BFD8F8000000F00700A04217D0AA
:100CB000FFF786FD401B02284FF00300F2D947E002
:100CC00068684FF0B04138B3032845D0022847D1B7
:100CD0000968890323D4012001B0BDE8F08300BF77
:100CE00000F08CF839683C2202EA910142F2FC6281
:100CF000C0F60002515840F20802B0FBF1F140F298
:100D00000400C2F200000068C2F20002116001B0EB
:100D1000BDE8F043FFF77EBD09688907DBD5396878
:100D200021F0030108433860FFF74AFD064641F20F
:100D3000883900BF3868696800F00C00B0EB810F9B
:100D40009FD0FFF73DFD801B48454FF00300F1D9D0
:100D500001B0BDE8F08300BF09688901BBD5DEE7BB
:100D600009684905B7D5DAE780B500F047F80821EA
:100D7000C5F6000109683C2202EA910142F2FC62D8
:100D8000C0F600025158B0FBF1F080BD80B500F014
:100D900035F80821C5F600010A683C2303EA9202EF
:100DA00042F2FC63C0F600039A580968B0FBF2F007
:100DB00042F23C72C1F30221C0F6000252F8211047
:100DC000C84080BD80B500F019F80821C5F60001C3
:100DD0000A683C2303EA920242F2FC63C0F6000375
:100DE0009A580968B0FBF2F042F23C72C1F3C2219A
:100DF000C0F6000252F82110C84080BD0C21C5F693
:100E0000000151F8040C10F00C02086805D00C2AFF
:100E100016D100F00300012812D14FF0B040036852
:100E200000681B0700F0080006D4D8B9D1F8880084
:100E3000C0F3032021E000BFD0B9D1F8880014E04E
:100E400042F20040042AC0F2F40022D0082A1FD146
:100E50004FF0B0421268D2025CBF44F60000C0F20C
:100E6000E81016E04FF0B0400068002005E000BF39
:100E70004FF0B0400068C0F3031042F25C73C0F65C
:100E8000000353F82030002A184618BF002001E064
:100E90000020002351F8042C02F00C020C2A18BF89
:100EA0007047086800F0030242F20040022AC0F2D4
:100EB000F4000AD0032A09D14FF0B0421268D202DE
:100EC0005CBF44F60000C0F2E810034608680A68F8
:100ED000C0F30620C2F30212584301320968B0FB86
:100EE000F2F0012202EB5171B0FBF1F0704700000B
:100EF0002DE9F04F81B0002800F0188340F2900BEC
:100F00000446C5F6000B5BF8880C5BF8841C22785D
:100F100000F00C08900601F0030A27D42078C007DF
:100F20005AD0B8F1080F53D0B8F10C0F08BFBAF17E
:100F3000030F4DD04FF0B040016821F48012D4E986
:100F400001131A43B1F5803F026009D0B1F5041FC7
:100F500040F034824FF0B0410A6842F400120A6057
:100F6000016841F48031016035E200BFB8F1000F43
:100F70001ED0B8F10C0F08BFBAF1010F18D0216ACA
:100F80004FF0B0463068002900F0668140F0010063
:100F90003060FFF715FC05463068800700F184815A
:100FA000FFF70EFC401B02284FF00300F4D95BE36F
:100FB000206A002800F0BA824FF0B041A06A0A68A7
:100FC000120700F1D180DBF804100909CDE000BF61
:100FD0006068002800F0AA82207880072FD5B8F139
:100FE000040F1FD0B8F10C0F08BFBAF1020F19D0CF
:100FF00021694FF0B0463068002900F0FD8140F4CF
:1010000080703060FFF7DCFB054600BF30684005AC
:101010000CD4FFF7D5FB401B02284FF00300F5D995
:1010200022E300BF2069002800F0808260695BF83D
:101030008C1C21F0FE4141EA00604BF88C0C2078BA
:10104000000729D42078400750D4E56A002D00F02D
:10105000AA82B8F10C0F40F03D81012D00F06682AC
:101060005BF8840C216B00F003028A4240F05E8240
:10107000616B00F070028A4240F05882A16B00F46C
:10108000FE42B2EB012F40F05182616C00F06040F3
:10109000884240F04B8286E2A069DBF80410002809
:1010A00000F0EC80E06901F01002904200F0C6828E
:1010B00001F00302022A00F03982C90700F0B7826A
:1010C000DBF8040020F00100CBF80400FFF778FB08
:1010D0000546DBF80400800740F1A882FFF770FBAB
:1010E000401B11284FF00300F3D9BDE2DBF8700379
:1010F000C00511D4FFF70AFCFFF762FB054600BFED
:10110000DBF87003C00507D4FFF75AFB401B022829
:101110004FF00300F4D9A7E2E068002800F07E81D8
:10112000852801D0052805D1DBF8000040F0040037
:10113000CBF80000FFF744FBDBF80010054641F058
:10114000010041F28836CBF8000000BFDBF8000058
:10115000800700F11381FFF733FB401BB0424FF0D3
:101160000300F3D980E200BF096801F0F00142F208
:10117000FC698842C0F600092CD93C2101EA9000A4
:1011800042F25C71DBF87820C0F60001085802F0EA
:101190000F0159F82110B0FBF1F5FFF7AFFBB0F5E7
:1011A000007F40F0BB804EF6BF20C0F22110854288
:1011B00040F2E08049F23F30C0F23420854240F2F4
:1011C00047814AF63F60C0F2EB20854240F2BA8088
:1011D000002644E14FF0B0410A6842F008020A607C
:1011E0000A6822F0F00202430A60616A5BF88C2C04
:1011F00022F47F4242EA01214BF88C1C3C2101EA97
:10120000900042F25C71DBF87820C0F600010858CB
:1012100002F00F0159F82110B0FBF1F5FFF76EFB5A
:10122000B0F5007F40F090804EF6BF20C0F2211054
:10123000854240F2A18049F23F30C0F2342085421D
:1012400040F256814AF63F60C0F2EB20854240F200
:101250008F80002653E100BF20F001003060FFF7CF
:10126000AFFA0546306880077FF558AEFFF7A8FA59
:10127000401B02284FF00300F4D9F5E121F00100F2
:10128000CBF80400FFF79CFA054600BFDBF804002A
:1012900080077FF5D7AEFFF793FA401B11284FF078
:1012A0000300F3D9E0E100BF4FF0B040016841F026
:1012B000080101600168D4E9093221F0F00111430D
:1012C00001605BF88C0C20F47F4040EA03204BF86F
:1012D0008C0C23E64FF0B046306820F08070306010
:1012E000FFF76EFA022D05460CD100BF3068800171
:1012F00040F12081FFF764FA401B0A284FF00300F9
:10130000F4D9B1E13068800140F14481FFF758FA27
:10131000401B0A284FF00300F4D9A5E14CF6BF703A
:10132000C0F26A00854225D945F63F50C0F2C6009A
:10133000854240F28D8046F23F60C0F20310854244
:101340003FF646AF022084E04CF6BF70C0F26A0060
:10135000854211D945F63F50C0F2C600854240F2A1
:10136000C78046F23F60C0F2031085423FF671AF7E
:101370000220BEE000206CE00020BAE0E06840F00F
:101380000400852840F01481FFF71AFADBF80010FA
:10139000054641F0800041F28836CBF8000000BFDE
:1013A000DBF8000000053FF550AEFFF709FA401BDF
:1013B000B0424FF00300F3D956E100BF4FF0B04602
:1013C0003068002920F480303060306820F400104C
:1013D000306000F00581FFF7F3F905464FF0B046A5
:1013E000306880033FF5F8ADFFF7EAF9401B642849
:1013F0004FF00300F4D937E120F480703060FFF73C
:10140000DFF90546306840057FF519AEFFF7D8F9DA
:10141000401B02284FF00300F4D925E1FFF7D0F973
:10142000DBF80010064621F0800041F28837CBF847
:10143000000000BFDBF80050FFF7C2F929050546A0
:1014400040F1DE80A81BB8424FF00300F2D90BE157
:10145000012042F2F061C0F6000151F8206044F230
:101460000007C5F60007386820F0070030433860F1
:10147000FFF7A6F9054600BF386800F00700B04244
:1014800006D0FFF79DF9401B0228F5D94EE000BFBA
:101490004FF0B040016841F0080101600168D4E9F3
:1014A000093221F0F001114301605BF88C0C20F44B
:1014B0007F4040EA03204BF88C0CFFF79FFC5BF861
:1014C000881C3C2202EA910159F8011040F20802FE
:1014D000B0FBF1F140F20400C2F200000068C2F279
:1014E00000021160FFF796F9002840F0BD8015E575
:1014F000012042F2F061C0F6000151F8206044F290
:101500000007C5F60007386820F007003043386050
:10151000FFF756F9054600BF386800F00700B042F3
:10152000CBD0FFF74DF9401B0228F5D9012001B0BF
:10153000BDE8F08F5BF8840C48F28C01C1F2C11158
:1015400004F1300708408ECFD4E9106508431043FA
:1015500040EA03203843304328434BF8840C4FF0D3
:10156000B045286840F0807028605BF8840C40F03B
:1015700080504BF8840CFFF723F90446286880015B
:1015800011D4FFF71DF9001B0A284FF00300F5D90D
:101590006AE000BF5BF8840C4FF6FC71CEF6FE618A
:1015A00008404BF8840C002001B0BDE8F08F00BF6C
:1015B000FFF706F9DBF80010054621F0800041F244
:1015C0008836CBF80000DBF8000000057FF53DAD64
:1015D000FFF7F6F8401BB0424FF00300F3D943E0A9
:1015E000FFF7EEF80546306880037FF5F5ACFFF7AE
:1015F000E7F8401B64284FF00300F4D934E000BF43
:10160000DBF8000041F2883620F00100CBF8000042
:10161000DBF8000080077FF518ADFFF7D1F8401B1D
:10162000B0424FF00300F3D91EE000BFE069DBF8E1
:10163000041021F010010843CBF80400DBF804008B
:1016400040F00100CBF80400FFF7BAF8054600BFF0
:10165000DBF8040080073FF5F5ACFFF7B1F8401B5D
:1016600011284FF00300F3D901B0BDE8F08F00005E
:10167000411E0020B0EB116F1CBF012070474EF2DD
:101680001002CEF2000251604EF62351CEF200015C
:10169000F0230B70072190601160704770470000C5
:1016A000704700007047000010B590F83C20012AF8
:1016B0004FF0020224D080F83D20026842F6004E2E
:1016C0005368D2F808C0C4F2010E724503D14C68C9
:1016D00023F4700323430C6823F070032343724503
:1016E000536002D0B2F1804F04D189682CF080039E
:1016F000194391600121002280F83D1080F83C20C0
:10170000104610BD002804BF01207047B0B5044644
:1017100090F83D0028B9002084F83C00204600F0F5
:1017200063F8022084F83D00206842F6004E02680B
:10173000C4F2010E704502D0B0F1804F03D1A3680E
:1017400022F070021A4344F2FF33C4F2010344F65C
:10175000000C9842C4F2010C06DCB0F1804F0BD0B3
:10176000704509D00CE000BF604505D044F200434D
:10177000C4F20103984203D1236922F440721A4350
:10178000A16922F080026368E56811437045016039
:10179000C562836218BF60451ED161690163012182
:1017A0004161002084F8481084F83E1084F83F100E
:1017B00084F8401084F8411084F8421084F84310F3
:1017C00084F8441084F8451084F8461084F84710D3
:1017D00084F83D10B0BD00BF44F20041C4F20101E5
:1017E0008842DCD1D9E7000080B582B00068B0F152
:1017F000804F1CBF02B080BD5820C5F600000168B4
:10180000002241F0010101600068002100F00100A8
:10181000019001981B20FFF735F81B2002B0BDE8AE
:101820008040FFF71FB8000090F83D1001291CBF51
:1018300001207047022180F83D10016842F6004205
:10184000C868C4F20102914240F00100C86002D0B1
:10185000B1F1804F12D188680722C0F20102024024
:10186000062A4FF000000ED0B2F5803F08BF704747
:10187000086840F00100086000207047086840F0E8
:10188000010008600020704780B590F83C20012AD4
:101890004FF0020200F0CC8080F83D20D0F800C06C
:1018A0008822DCF80830CFF6CE721A40CCF8082037
:1018B0000B684F2B2ADC1F2B48DD202B49D0302B07
:1018C00047D0402B40F0B680D1F804E0C968DCF87E
:1018D0002030DCF8202022F00102CCF82020DCF8B7
:1018E000182022F0F00242EA011123F00A0242EA33
:1018F0000E02CCF81810CCF82020DCF808104FF6B7
:101900008872CFF6CF721140473188E06F2B2BDD04
:10191000B3F5005F4ED0B3F5805F00F08280702B8E
:1019200040F08880D1E901E3C968DCF8082043EA87
:101930000E0322F47F4243EA01211143CCF8081040
:10194000DCF8081041F0770169E000BF0BB1102B03
:1019500070D1DCF808104FF68872CFF6CF721140C4
:10196000194341F007015AE0502B37D0602B61D169
:10197000D1F804E0C968DCF8203023F01003CCF87B
:101980002030DCF81830DCF8202023F4704322F0FB
:10199000A00243EA013142EA0E12CCF81810CCF84A
:1019A0002020DCF808104FF68872CFF6CF72114075
:1019B000673134E0D1E901E3C968DCF8082043EA83
:1019C0000E0322F47F4243EA01211143CCF80810B0
:1019D000DCF8081041F4804121E000BFD1F804E0B8
:1019E000C968DCF82030DCF8202022F00102CCF8B5
:1019F0002020DCF8182022F0F00242EA011123F046
:101A00000A0242EA0E02CCF81810CCF82020DCF8CA
:101A100008104FF68872CFF6CF7211405731CCF8CC
:101A200008100022012180F83D10002180F83C10B0
:101A3000104680BD0122F5E77047000010B501682F
:101A400004460869800744BFC8685FEA80703FD4D5
:101A50000869400744BFC8685FEA407044D4086919
:101A6000000744BFC8685FEA00704BD40869C0062D
:101A700044BFC8685FEAC06050D40869C0071CBF93
:101A8000C8685FEAC07057D10869000644BFC868DB
:101A90005FEA006058D40869C00544BFC8685FEABF
:101AA000006059D40869400644BFC8685FEA4060D6
:101AB0005AD40869800646BFC8685FEA806010BDD6
:101AC0006FF0200220460A61BDE81040FFF7EABD32
:101AD0006FF00200086101202077886980074BD0F1
:101AE0002046FFF7A9FF4DE06FF0040008610220D7
:101AF0002077886910F4407F48D02046FFF79CFF8C
:101B00004AE000BF6FF00800086104202077C86930
:101B1000800745D02046FFF78FFF47E06FF01000A9
:101B2000086108202077C86910F4407F42D0204621
:101B3000FFF782FF44E000BF6FF00100086120461C
:101B400000F046F821689FE76FF0800008612046AA
:101B5000FFF7A6FD21689EE76FF4807008612046BC
:101B6000FFF79CFD21689DE76FF04000086120466B
:101B700000F030F821689CE7204600F025F8204668
:101B800000F024F821680020207761E7204600F06B
:101B90001BF8204600F01AF82168002020775EE745
:101BA000204600F011F8204600F010F821680020CF
:101BB00020775BE7204600F007F8204600F006F8A3
:101BC00021680020207758E7704700007047000028
:101BD000704700007047000090F88410012904BF8E
:101BE000022070472421C0F8881002681168136829
:101BF00023F00103136021F00053002141661360BC
:101C00002022C0F8882080F8841008467047000021
:101C1000B0B590F88420012A04BF0220B0BD242270
:101C2000C0F888200268D0F864E0D2F800C01368D9
:101C3000BEF1000F23F001031360936823F060638B
:101C400041EA0301916019D09368916842F2C47E21
:101C5000490FC0F6000E42F2CC751EF80140C0F6E6
:101C60000005695CC3F34263E400B4FBF1F11EF8C4
:101C70000340EB5CE500B5FBF3F301E00121012338
:101C8000A0F86A102021A0F86830C2F800C0C0F89F
:101C90008810002180F884100846B0BDB0B590F8D7
:101CA0008420012A04BF0220B0BD2422C0F888206D
:101CB0000268D0F864E0D2F800C01368BEF1000FEB
:101CC00023F001031360936823F0604341EA0301AA
:101CD000916019D09368916842F2C47E490FC0F6B2
:101CE000000E42F2CC751EF80140C0F60005695C9A
:101CF000C3F34263E400B4FBF1F11EF80340EB5C74
:101D0000E500B5FBF3F301E001210123A0F86A101F
:101D10002021A0F86830C2F800C0C0F88810002167
:101D200080F884100846B0BDB0B582B0B0B10446AA
:101D3000D0F8880028B9002084F88400204600F0FC
:101D400059F82420C4F888002068016821F00101B6
:101D50000160204600F0A4F9012803D1012002B05F
:101D6000B0BD00BFA06A10B1204600F025F9206880
:101D7000416821F490414160816821F02A0181602D
:101D8000016841F0010101600020C4F89000FEF7F5
:101D900017FD216805460A6812070CD56FF07E4CC6
:101DA00020464FF4001100222B46CDF800C000F071
:101DB000AFFA78B92168086840070FD56FF07E4CFC
:101DC00020464FF4800100222B46CDF800C000F0E1
:101DD0009FFA18B1032002B0B0BD00BF2020C4F8A4
:101DE0008800C4F88C000020E066206784F8840036
:101DF00002B0B0BD10B594B0044600201290CDE9F9
:101E00001000CDE90E00684604303421FEF704FBD3
:101E1000206844F20041C4F20001884202D014B0AC
:101E200010BD00BF4FF44020022402906846009489
:101E3000FEF776FD002818BFFEF7D2FB4C20C5F652
:101E40000000C16841F40031C160C16801F4003193
:101E500013911399016841F00101016000680EA916
:101E600000F00100139013980C20CDE90E0400201F
:101E7000CDE91000072012904FF09040FEF7B6FB1E
:101E800014B010BD2DE9F04182B00446D0F88800AE
:101E900020283FD10E4600294FF001004ED01746B2
:101EA000002A4BD04FF0000821201D46C4F8908036
:101EB000C4F88800FEF784FCA4F85470A4F85670A7
:101EC000A1680746B1F5805F0FD12069002814BFD3
:101ED0003046B046064608E016F8010B21688862D5
:101EE000B4F856000138A4F85600B4F85600A8B16A
:101EF0002046802100223B46009500F009FAA8B94F
:101F0000002EE9D138F8020B21686FF35F20886258
:101F10000026E5E7022002B0BDE8F081204640211E
:101F200000223B46009500F0F3F918B1032002B0FF
:101F3000BDE8F0812020C4F88800002002B0BDE890
:101F4000F0810000FEE70000FEE70000FEE7000071
:101F50007047000070470000FEF738BC7047000073
:101F600010B58AB06C4620462821FEF755FA40F29B
:101F70007000C2F200000268511C01600AA12046F4
:101F8000FEF7C6F940F2C000C2F200002146282246
:101F90004FF6FF73FFF776FF40F27400C2F20000C5
:101FA000FFF74CFD0AB010BD0D0A5365636F6E64F8
:101FB000733D25642000000080B5816ACA070DD1F9
:101FC0008A0716D44A071FD40A0728D4CA0631D470
:101FD0008A063AD44A0658D542E000BF0268D0F8D3
:101FE0002CC0536823F4003343EA0C0353608A0780
:101FF000E8D50268D0F830C0536823F4803343EA50
:102000000C0353604A07DFD50268D0F834C0536828
:1020100023F4802343EA0C0353600A07D6D50268F1
:10202000D0F838C0536823F4004343EA0C035360EC
:10203000CA06CDD50268D0F83CC0936823F480531B
:1020400043EA0C0393608A06C4D50268D0F840C006
:10205000936823F4005343EA0C0393604A0614D5B3
:102060000268D0F844C05368BCF5801F23F4801385
:1020700043EA0C03536008D1D2F804C0D0F848E01A
:102080002CF4C00343EA0E035360090658BF80BD19
:102090000168C06C4A6822F400221043486080BD89
:1020A00070B504462269D4E9021300680A436169E5
:1020B000E6691143026846F6F315CCF6FF75314325
:1020C0002A4011430160416848F2000E21F440515A
:1020D00019434160A269C4F2000E70451CBF216A19
:1020E0000A4381684FF2FF43C1F2FF1319401143C5
:1020F0008160C16AD4F824C044F2004221F00F018B
:10210000C4F2000241EA0C019042C1620ED0704557
:1021100012D043F60001C4F20101884246D1882161
:10212000C5F600010A6876A30FE000BF8821C5F656
:10213000000109688A0804E08821C5F600010968E1
:102140008A0A42F2B473C0F6000302F0030153F8A6
:102150002120704542F20040C0F2F4002DD0B6F5C7
:10216000004F11D1082A4FF0010100F2C080DFE8D2
:1021700002F0056977BE6FBEBEBE7500FEF706FEB3
:10218000002840F0628067E0082A4FF0010100F269
:10219000AE80DFE802F0058593AC8BACACAC91006F
:1021A000FEF7F4FD002840F07E8083E010227045A9
:1021B00042F20040C0F2F400D1D1082A4FF00101F0
:1021C00000F29580DFE802F0069314930C9393934A
:1021D000120000BFFEF7DAFD30B1D4F824C007E0EA
:1021E000FEF70CFE0028F8D1002180E04FF40040FB
:1021F00042F29C71C0F6000131F81C106268B0FB1D
:10220000F1F002EB420188424FF001016FD313035A
:1022100098426CD8010E000210EB520041F100010F
:102220000023FDF7FDFF4FF6FF42A0F54071C0F21D
:102230000F02914204D82168C860002157E000BF16
:10224000012154E0FEF7BEFD30B1D4F824C007E010
:10225000FEF7D4FD0028F8D1002148E04FF40040FB
:1022600042F29C71C0F6000131F81C106268B0FBAC
:10227000F1F0510801EB4000B0FBF2F04FF6EF72C5
:10228000A0F11001914209D84FF6F0710140C0F35E
:10229000420022680844D060002128E0012126E0A5
:1022A000FEF790FD30B1D4F824C007E0FEF7A6FD9C
:1022B0000028F8D100211AE04FF4004042F29C714E
:1022C000C0F6000131F81C104FF6EF72B0FBF1F0D0
:1022D000616800EB5100B0FBF1F0A0F110019142F8
:1022E00004D82168C860002101E000BF01214FF03F
:1022F0000110A066002208466267A26770BD00BF99
:1023000001000000040000000200000008000000BE
:102310002DE9F041044600681546C2690E46114099
:10232000891BB1FA81F14909A94240F09C80DDF88E
:102330001880B8F1000F27D018F101017CD100BF3F
:10234000C1693140891BB1FA81F14909A94240F0C4
:102350008A80C1693140891BB1FA81F14909A942DA
:1023600040F08180C1693140891BB1FA81F149098E
:10237000A94278D1C1693140891BB1FA81F149097B
:10238000A942DDD06FE000BFFEF71AFA206850E8DE
:10239000000F216820F4D07041E80002BAB3206831
:1023A00050E8000F216820F4D07041E8000272B3B9
:1023B000206850E8000F216820F4D07041E8000246
:1023C0002AB3206850E8000F216820F4D07041E85B
:1023D0000002002ADAD11AE0206850E8020F2168D2
:1023E00020F0010041E80202DAB1206850E8020F53
:1023F000216820F0010041E8020292B1206850E813
:10240000020F216820F0010041E802024AB1206871
:1024100050E8020F216820F0010041E80202002A82
:10242000DAD12020C4F88800C4F88C00002084F899
:1024300084000320BDE8F0811F4600BFFEF7C0F90D
:10244000C01B4045A2D820680168490744BFC16944
:102450005FEA01510AD4C0693040801BB0FA80F0B5
:102460004009A842EAD00020BDE8F0814FF40061A5
:10247000016200BF50E8000F216820F4D07041E8ED
:102480000002C2B3206850E8000F216820F4D07029
:1024900041E800027AB3206850E8000F216820F478
:1024A000D07041E8000232B3206850E8000F216884
:1024B00020F4D07041E80002EAB12068DAE700BFFA
:1024C000206850E8020F216820F0010041E8020274
:1024D000DAB1206850E8020F216820F0010041E8DD
:1024E000020292B1206850E8020F216820F001003A
:1024F00041E802024AB1206850E8020F216820F04A
:10250000010041E80202002ADAD12020C4F8880044
:10251000C4F88C00C4F89000002084F884000320E4
:10252000BDE8F081FEE700009AB04C25C5F6000535
:10253000FEF75AF908AC201D4421FDF76DFF002677
:102540000796CDE90566CDE90366CDE90166D5F8C4
:10255000B403012161F34A20C5F8B403D5F8B403EC
:1025600000F4C0600090009820200890B020CDE9D1
:1025700012062046CDE91016FEF7BAFC20B1EFF3A3
:10258000108072B6FEE700BF4F20CDE9010601A81A
:1025900002210796CDE903660596FEF7CBFA28B12E
:1025A000EFF3108072B600BFFEE700BF286800217D
:1025B00040F00100286028684FF0804200F00100E0
:1025C0000890089840F27400C2F2000041F2BF2364
:1025D00042F210760B91CDE909110391CDE9011179
:1025E000C0E90023C0E9021601618161FFF78AF8A2
:1025F00020B1EFF3108072B6FEE700BF4FF48050B9
:10260000089040F27400C2F2000008A9FFF73CF9FC
:1026100020B1EFF3108072B6FEE700BF40F2740005
:102620000024C2F2000001A901940394FFF73CF8D2
:1026300020B1EFF3108072B6FEE700BF40F2C00099
:1026400044F20041C2F20000C4F200010C234FF436
:10265000E13280E81600C0E90344C0E90534C0E96E
:102660000744C0E90944FFF75FFB28B1EFF310808E
:1026700072B600BFFEE700BF40F2C000C2F2000029
:102680000021FFF70BFB28B1EFF3108072B600BFFB
:10269000FEE700BF40F2C000C2F200000021FFF7D9
:1026A000B7FA28B1EFF3108072B600BFFEE700BFA3
:1026B00040F2C000C2F20000FFF78EFA20B1EFF343
:1026C000108072B6FEE700BF40F27400C2F2000054
:1026D000FFF7AAF820B1EFF3108072B6FEE700BF53
:1026E000FEE710B5FDF774FF4FF00001016010BD6B
:1026F00000000000010000000200000001000000D6
:1027000003000000050000000100000001000000BF
:10271000060000000A000000200000000200000087
:10272000040000000800000010000000400000004D
:102730008000000000010000000200000000000016
:102740000000000000000000000000000100000088
:10275000020000000300000004000000A086010049
:10276000400D0300801A060000350C0040420F00A7
:1027700080841E0000093D0000127A000024F4004D
:1027800000366E010048E801006CDC020000000029
:102790000000000000000000000000000100020036
:1027A0000400060008000A000C0010002000400091
:1027B0008000000100000000040000000200000092
:1027C00008000000010101030701000008040204E1
:1027D00008010101F8270008000000201000000097
:1027E00074010008082800081000002048070000B5
:1027F000900100080000000001000000100000002F
:0828000000093D00000000008A
:0400000508000139B5
:00000001FF
