:020000040800F2
:1000000070070020E1010008E1210008D921000863
:10001000DD210008910800086127000800000000A9
:10002000000000000000000000000000E9210008BE
:100030009508000800000000E5210008ED210008F7
:10004000FB010008FB010008FB010008FB010008A0
:10005000FB010008FB010008FB010008FB01000890
:10006000FB010008FB010008FB010008FB01000880
:10007000FB010008FB010008FB010008FB01000870
:10008000FB010008FB010008FB010008FB01000860
:10009000FB010008FB010008FB010008FB01000850
:1000A000FB010008FB010008FB010008FB01000840
:1000B000FB010008FB010008FB010008FB01000830
:1000C000FB010008FB010008FB010008FB01000820
:1000D000FB010008FB010008FB010008FB01000810
:1000E000FB010008FB010008FB010008FB01000800
:1000F000FB010008FB010008FB010008FB010008F0
:10010000FB010008FB010008FB010008FB010008DF
:10011000FB010008FB010008FB010008FB010008CF
:10012000FB010008FB010008FB010008FB010008BF
:10013000FB010008FB01000800F002F800F041F8A4
:100140000AA090E8000C82448344AAF10107DA4532
:1001500001D100F036F8AFF2090EBAE80F0013F043
:10016000010F18BFFB1A43F0010318473034000099
:1001700050340000103A24BF78C878C1FAD852072A
:1001800024BF30C830C144BF04680C607047000011
:100190000023002400250026103A28BF78C1FBD890
:1001A000520728BF30C148BF0B607047642900F078
:1001B000F780002070471FB503F0D6F81FBD10B5BB
:1001C00010BD00F0D3F91146FFF7F5FF02F0CAFAAF
:1001D00000F00AFA03B4FFF7F2FF03BC00F070FA74
:1001E0000948804709480047FEE7FEE7FEE7FEE7CB
:1001F000FEE7FEE7FEE7FEE7FEE7FEE70448054907
:10020000054A064B70470000F1210008390100083B
:100210007001002070070020700300207003002090
:1002200053EA020C00F069802DE9F04B4FF0000614
:10023000002B1FBFB3FA83F503FA05F424FA05F681
:100240005E4012BF1643B2FA82F502FA05F4C5F118
:1002500020051EBF22FA05FC44EA0C04203556EAAC
:10026000044C4FEA144418BF641C4FF000084FF0D0
:100270000009904271EB030C39D3002919BFB1FA80
:1002800081F701FA07F6B0FA80F700FA07F6C7F12E
:1002900020071EBF20FA07FC46EA0C062037B6FBF3
:1002A000F4FCA7EB0507103F07F01F0BCBF120066E
:1002B0002CFA06F60CFA0BFB44BFB3460026202F9F
:1002C000A4BF5E464FF0000B5BEA060C08BF4FF080
:1002D000010B19EB0B0948EB0608ABFB027C06FB94
:1002E00002CC0BFB03CCC01B71EB0C01C1E70B462E
:1002F000024641464846BDE8F08B13B5084318BF97
:100300004FF0FF300146AFF30080BDE81C4070475E
:100310000FB41CB5074B06AA7B44694600900598AC
:1003200000F003F90020694600F012F91CBC5DF8EA
:1003300014FB0000350200002DE9F0410E46044692
:10034000002020622046E168884730B3252805D088
:10035000D4E901219047206A401CF2E7E168204679
:1003600000278847050018D0A5F14100192802D8B8
:1003700020354FF400673246294620462760FFF7B4
:1003800015FF40B1012804D0F61D26F007060836F7
:10039000D8E7361DD6E72846DAE7206ABDE8F081BF
:1003A0002DE9F0410646002410687529314616A54E
:1003B00010D0AFF30080002802DA404213A507E016
:1003C00031688A0701D512A502E0490704D511A5B5
:1003D000012401E0AFF3008000210A2206F1240786
:1003E00009E0B0FBF2FCB0FBF2F302FB1C00303082
:1003F00078541846491C0028F3D123462A46304633
:10040000BDE8F04100F032B8000000002D0000000F
:100410002B000000200000004FF0000200B5134642
:1004200094469646203922BFA0E80C50A0E80C5014
:10043000B1F12001BFF4F7AF090728BFA0E80C50C5
:1004400048BF0CC05DF804EB890028BF40F8042BBE
:1004500008BF704748BF20F8022B11F0804F18BF2B
:1004600000F8012B70477047704770472DE9F0473F
:100470000D4699469246044600F124080168880614
:1004800004D5E06921F01001216000E00120A842BC
:1004900001DD471B00E00027A1697A1902EB090082
:1004A000081AA0612078C00602D42046AFF300806D
:1004B000002608E0D4E901211AF806009047206AD6
:1004C000401C761C20624E45F4DB2078C0060AD51D
:1004D0002046AFF3008006E0D4E9012130209047A8
:1004E000206A401C2062381EA7F10107F4DC07E0F7
:1004F000D4E9012118F805009047206A401C2062C9
:10050000281EA5F10105F3DC2046AFF3008020781A
:10051000000602D50220BDE8F0870120FBE70000BD
:1005200001694A1C02610878704700B58FB0CDE9B7
:1005300001310021059105497944CDE903101146A7
:100540006846FFF7F9FE0FB000BD0000E5FFFFFFB2
:100550000A6802F8010B0A60704700000048704703
:100560001400002000487047100000207546FFF777
:10057000F9FFAE4605006946534620F00700854660
:1005800018B020B5FFF73AFEBDE820404FF0000656
:100590004FF000074FF000084FF0000BAC46ACE8FE
:1005A000C009ACE8C009ACE8C009ACE8C00921F05A
:1005B00007018D46704700001FB584B000200A9CDB
:1005C00006AB04AA02A90094AFF3008018B1DDE9DC
:1005D000020108B010BD0348204000F00EF80020D2
:1005E0000146F6E70000207C10B50446AFF300801A
:1005F0002046BDE81040FFF7EDBD10B500F00AF849
:10060000BDE81040AFF30080002801D000F058B8DA
:100610007047000010B5022803D0410103D50DA199
:1006200012E0002010BD010101D50FA10CE0C100B6
:1006300001D511A108E0810001D512A104E040001C
:1006400001D513A100E0002115A000F03FF8012022
:1006500010BD0000496E76616C6964204F70657250
:100660006174696F6E0000004469766964652042B8
:1006700079205A65726F00004F766572666C6F77ED
:1006800000000000556E646572666C6F77000000B4
:10069000496E657861637420526573756C740000EF
:1006A0005349474650453A2041726974686D6574F4
:1006B000696320657863657074696F6E3A20000025
:1006C00001491820ABBEFEE72600020070B50546C2
:1006D0000C460A2000E06D1C00F011F835B12878B6
:1006E0000028F8D102E0641C00F009F814B1207869
:1006F0000028F8D1BDE870400A20AFF3008008B5AB
:1007000069468DF800000320ABBE08BD70470000AD
:10071000B0B50168044688688A6880074FF0000019
:1007200033D412F0010208BFB0BD886800F00500A4
:1007300001281FD188684FF6E872C7F6FF72104093
:10074000023088600320086000F032FC216889686C
:10075000C90704BF0020B0BD054602E08068C0079D
:1007600012D000F025FC411B20680329F6D38168D4
:10077000C907F3D0A06D40F01000A065E06D40F017
:100780000100E0650120B0BD0020B0BD70B582B0B1
:1007900004460020019021688A68D20775D14FF67F
:1007A000E876C7F6FF76886806F12F0210420BD074
:1007B000A06D40F01000A065E06D40F00100E06524
:1007C000012002B070BD00BF8868304040F00100D9
:1007D000886042F20870C4F201000068000225D46B
:1007E000607E01281ED000F0E3FB21680A68D20772
:1007F00018D1054603E000BF0868C00744D18868E7
:10080000C00704D18868304040F00100886000F0E3
:10081000CFFB401B21680328EED30868C007EBD14B
:10082000C6E700BF002002B070BD00BF40F2080064
:10083000C2F20000006842F663518009C0F23E51E6
:10084000A0FB0101012000EB91100190019800280C
:10085000C6D000BF01980138019001980028BFD090
:1008600001980138019001980028B9D00198013809
:10087000019001980028B3D00198013801900198A7
:100880000028E7D1ACE700BF002002B070BD000037
:10089000FEE7000070470000EFF3108072B600BF63
:1008A000FEE700000068006C704700002DE9F04191
:1008B00082B004460020019044B1254655F8580FF7
:1008C00040B121688868C0000FD540E0012002B027
:1008D000BDE8F081204600F027F90020E06584F8AB
:1008E000540021688868C00031D488684FF6E872E7
:1008F000C6F6FF72104000F18050886040F2080098
:10090000C2F20000006842F663528009C0F23E5213
:10091000A0FB02029009022202EB40000190019824
:10092000A8B100BF019801380190019878B10198F1
:1009300001380190019850B1019801380190019857
:1009400028B101980138019001980028EAD18868FF
:10095000C00009D4A06D40F01000A065E06D40F02B
:100960000100E065012000E000208A682B68C2F3E6
:10097000800203F01003D2182A6807D042F0100159
:100980000120296002B0BDE8F08100BF22F481722D
:1009900002322A608A68D20770D1227ED4E9023EF0
:1009A000667E43EA823394F81A80D4F810C043EA92
:1009B000C63343EA4833266B2CF00047BCF1FF3FB7
:1009C00043EA0E03C8BF4FF4001794F82C20002E02
:1009D00018BF43F4805394F820603B43012E43EA50
:1009E00042030BD1B8F1000F00F09680A26D42F0E7
:1009F0002002A265E26D42F00102E265626A2AB15C
:100A000002F4E072A76A1A4342EA0703CA6840F296
:100A10000127CFF6FE773A401A43CA60636894F81C
:100A20003C20E76C012A03F0404242EA070209D168
:100A3000D4E91076D4F848E03A43324342EA0E0251
:100A400042F001020F694FF60246C1F6FF763740C9
:100A50003A43B3F1004F0A6118BFB3F1404F0FD0D2
:100A6000B3F1804F0CD042F20872C4F20102176851
:100A70009B0C63F39547176002E000BFD4F810C0E9
:100A8000D4E90D324F69BCF5001F27F0070747EA8C
:100A900003074F614F6927F0700747EA02124A6166
:100AA00008D0BCF1000F18D10A4652F8287F67F031
:100AB0000F0C10E00A4652F8287FE7691C2606EB67
:100AC0008707D4F860C007F01C076FF00F0606FA1E
:100AD00007F74CEA070CC2F800C0496901F00701AA
:100AE000994209D10021E165A16D012262F3010162
:100AF000296002B0BDE8F081A06D40F0100020F048
:100B00000200A06554F85C0F40F001010120254669
:100B1000296002B0BDE8F08143F48033626A002AA4
:100B20007FF46EAF72E7000010B594B00446002069
:100B30001290CDE91000CDE90E0068460430342152
:100B4000FFF76AFC206842F20041C4F201018842CA
:100B500002D014B010BD00BF4FF4804000904FF0A1
:100B600080500B90684600F0C3FA002818BFFFF7CA
:100B700093FE4C20C5F60000416941F400714161CB
:100B8000416901F4007113911399016841F0020168
:100B9000016000680EA900F00200139013984FF452
:100BA00000500E9003200F900020109040F2004063
:100BB000C4F6000000F012F914B010BDF0B581B019
:100BC000044640690D46082802D1082705E000BF09
:100BD0002068C068C00755D1042700F0E9F92168F2
:100BE0000A683A421CD0A06D40F40070A065C86845
:100BF00010F4406F56D1A07E002853D1086800073A
:100C000050D58868400745D4486840F2011220F06A
:100C10000C004860A06D90430130A06542E000BF29
:100C20000646681C29D065B900F0C2F92168086839
:100C300038420FD008683842F6D0D4E70868384206
:100C4000D1D100F0B5F9801B2168A842F6D9086817
:100C50003842F3D1A06D40F00400A065002084F874
:100C60005400032001B0F0BD08683842BBD10868C9
:100C70003842B8D108683842B5D108683842F3D054
:100C8000B1E700BFA06D40F02000A065012001B0D9
:100C9000F0BD00BFA06D40F02000A065E06D40F009
:100CA0000100E065207E002804BF0C2008600020C1
:100CB00001B0F0BD10B5044600688068400703D459
:100CC00094F85400012801D1022010BD012084F8BD
:100CD00054002046FFF75AFD20B1002184F854103B
:100CE00010BD00BF2168A06D40F60172904300F571
:100CF0008070A06500201C22E0650A6084F8540022
:100D00008A684FF6E873C7F6FF731A4004328A60A8
:100D100010BD0000B0B5044690F85400012804BF8F
:100D20000220B0BD0121206884F854108168490771
:100D300010D58168890707D481684FF6E872C7F635
:100D4000FF7211401031816000F032F9216889682A
:100D5000490711D42046FFF7DBFC18B1002184F8C5
:100D60005410B0BD214651F8580F40F2011220EA4C
:100D70000202002016E000BF054602E0806840073E
:100D8000E8D500F015F9411B20680329F6D38168E6
:100D90004907F3D5A06D214640F01000A06551F839
:100DA0005C2F012042F001020A60002184F85410F7
:100DB000B0BD0000B0B5044600F0FAF8054640F2B8
:100DC0000000C2F200000078611C18BF044400BF9C
:100DD00000F0EEF8401BA042FAD3B0BD2DE9F04F71
:100DE00084B00E680390002E00F0DE8040F6000212
:100DF0000398C4F600028E4690424FF007004FF071
:100E000000044FF001074FF000054FF0000808BF45
:100E10000220009002914CE040F20041C4F6000133
:100E2000009A884208BF012204F00C00072181408B
:100E300023EA010102FA00F008430821C4F201018B
:100E400041F8260040F60006C5F600063068DEF8D8
:100E5000041040EA0902CB0258BF20EA09023260BE
:100E600070688B0240EA090258BF20EA09027260EA
:100E7000D6F88000CB0340EA090258BF20EA0902F5
:100E8000C6F88020D6F88400890340EA090258BFDA
:100E900020EA0902C6F88420DEF8006008F10108A3
:100EA00036FA07F005F1020507F1010704F1040421
:100EB0007AD0A7F1010A012000FA0AF316EA030921
:100EC000EAD0DEF804B00BF0030CACF10102012A09
:100ED0001ED803984FEA480281680192032202FA61
:100EE00005F6029AB143D2F80CE0F6430EFA05F289
:100EF0001143DDF808E081604168CBF300129943AB
:100F00000346019802FA0AF2114359600CE000BF4F
:100F10000320A840039BC643BCF1030F284603D11E
:100F200028464FF0030C26E0D968DEF8082031404F
:100F300082401143BCF1020FD9601CD102466FF010
:100F4000030000EA5A01194404F01C030F20D1F8F1
:100F500020C000FA03FE1046029A2CEA0E0C126919
:100F6000DDF808E09A4042EA0C02039B0A62DEF8D0
:100F700004B00BF0030C19680CFA00F03140084380
:100F80001BF4403F18603FF487AF08204FEA9A06F1
:100F9000C4F2010050F826300398B0F1904F7FF46E
:100FA0003BAF002240E700BF04B0BDE8F08F000077
:100FB00040F26810C2F200000068704740F2000082
:100FC00040F26811C2F20000C2F2000100780A6823
:100FD000104408607047000080B5032000F066F8F8
:100FE00000F0AAFA40F20801C2F2000108600F20E6
:100FF00000F008F800281CBF012080BD00F028F890
:10100000002080BD70B540F20006C2F200063178C3
:10101000D1B1044600F090FA31784FF47A72B2FB05
:10102000F1F1B0FBF1F000F00BFF0F2C4FF00105D8
:1010300008D838B94FF0FF3021460022002500F0D3
:1010400009F87460284670BD0125284670BD00006F
:101050007047000010B54EF60C5CCEF2000CDCF8C8
:101060000030C3F3022E8EF00704042C28BF0424A2
:10107000BEF103034FF0FF3E0EFA04F438BF002325
:10108000A14399400EFA03F39A4300F00F03043B87
:101090001143634409010C3300F16042B0F1FF3F9A
:1010A000C8BF02F56443197010BD00004EF60C5124
:1010B000CEF200010A684FF6FF031A4060F30A22DD
:1010C00042F0806040F0FD700860704740F20040E0
:1010D000C5F60000006800F4C060704740F20040B0
:1010E000C5F60000016841F480710160704700009E
:1010F000F0B581B0044680788826C007C5F60006A2
:1011000000F0AC80FFF7EAFFFFF752FF054600BF93
:10111000D6F87803C00577D4FFF74AFF401B0228B2
:10112000F6D903202168CA0700F09D806268336801
:1011300023EA124392B21A4332608A0740F1968042
:10114000A268336823EA124392B21A4332608A06D5
:1011500040F18F802269336823F440631A43326080
:101160008A0540F18980226A33684FF6FF7767EA83
:1011700002073B4043EA024232604A0540F17F8069
:10118000626A33684FF6FF7767EA02073B4043EA3B
:10119000024232600A0575D5A26A33684FF6FF77BE
:1011A00067EA02073B4043EA024232604A066BD5D7
:1011B000626933686FF47F2767EA12173B4002F4D5
:1011C0007F4243EA021232600A065FD5A2693368A1
:1011D0006FF47F2767EA12173B4002F47F4243EA2D
:1011E00002123260CA0553D5E26933686FF47F2773
:1011F00067EA12173B4002F47F4243EA0212326070
:10120000CA0657D546E000BFB168606B01F4407173
:1012100081421ED0B168B26821F4407342F480323A
:10122000B260B268890722F480320146B260B360CE
:101230000FD5FFF7BDFE054641F28837B06880073D
:1012400006D4FFF7B5FE401BB842F7D969E700BFE7
:10125000616BB06820F440700843B06000202168E2
:10126000CA077FF463AF8A073FF56AAF8A063FF586
:1012700071AF8A053FF577AF4A053FF581AF0A05A3
:101280003FF58AAF4A0693D40A069FD4CA05ABD469
:10129000CA060FD5E2683368B2F5807F23F4407345
:1012A00043EA0203336005D156F87C2C42F0807289
:1012B00046F87C2C0A0407D5226B336823F04043A0
:1012C00043EA020333609AB1490419D5E16A3268EE
:1012D000B1F1005F22F0405242EA010232600FD1C8
:1012E00056F87C1C41F4803146F87C1C08E000BFB5
:1012F00056F87C2C42F0807246F87C2C4904E5D4E8
:1013000001B0F0BD2DE9F04381B0002800F0CB80A2
:1013100044F20008C5F600080546D8F800000C465F
:1013200000F00700884215D2D8F8000020F007002E
:101330002043C8F80000FFF73BFE0646D8F800003F
:1013400000F00700A04205D0FFF732FE801B022804
:10135000F4D977E0286808278107C5F6000714D577
:10136000A868396821F0F00108433860FFF720FED3
:10137000064600BF3868C00306D4FFF719FE801B7D
:101380000228F7D95EE000BF2868810615D5686994
:10139000D7F8001121F0F0010843C7F80001FFF76A
:1013A00007FE0646D7F80001800305D4FFF700FECC
:1013B000801B0228F6D945E02868410617D5A869A0
:1013C000D7F8001121F00F0141EA1010C7F8000111
:1013D000FFF7EEFD064600BFD7F80001C00305D4B5
:1013E000FFF7E6FD801B0228F6D92BE028684107AD
:1013F00013D5E868396821F4E06108433860FFF7E5
:10140000D7FD06463868800306D4FFF7D1FD801B60
:101410000228F7D916E000BF2868010717D5286908
:10142000396821F4605141EAC0003860FFF7C0FD1F
:10143000064600BF3868400308D4FFF7B9FD801B9B
:101440000228F7D9032001B0BDE8F0832868C0075F
:101450001ED1D8F8000000F00700A04228D9D8F823
:10146000000020F007002043C8F80000FFF7A0FDAF
:10147000054600BFD8F8000000F00700A04217D0D2
:10148000FFF796FD401B02284FF00300F2D947E01A
:1014900068684FF0B04138B3032845D0022847D1DF
:1014A0000968890323D4012001B0BDE8F08300BF9F
:1014B00000F08CF839683C2202EA910143F2C44200
:1014C000C0F60002515840F20802B0FBF1F140F2C0
:1014D0000400C2F200000068C2F20002116001B014
:1014E000BDE8F043FFF78EBD09688907DBD5396891
:1014F00021F0030108433860FFF75AFD064641F228
:10150000883900BF3868696800F00C00B0EB810FC3
:101510009FD0FFF74DFD801B48454FF00300F1D9E8
:1015200001B0BDE8F08300BF09688901BBD5DEE7E3
:1015300009684905B7D5DAE780B500F047F8082112
:10154000C5F6000109683C2202EA910143F2C44257
:10155000C0F600025158B0FBF1F080BD80B500F03C
:1015600035F80821C5F600010A683C2303EA920217
:1015700043F2C443C0F600039A580968B0FBF2F086
:1015800043F20452C1F30221C0F6000252F82110C6
:10159000C84080BD80B500F019F80821C5F60001EB
:1015A0000A683C2303EA920243F2C443C0F60003F4
:1015B0009A580968B0FBF2F043F20452C1F3C22119
:1015C000C0F6000252F82110C84080BD0C21C5F6BB
:1015D000000151F8040C10F00C02086805D00C2A28
:1015E00016D100F00300012812D14FF0B04003687B
:1015F00000681B0700F0080006D4D8B9D1F88800AD
:10160000C0F3032021E000BFD0B9D1F8880014E076
:1016100042F20040042AC0F2F40022D0082A1FD16E
:101620004FF0B0421268D2025CBF44F60000C0F234
:10163000E81016E04FF0B0400068002005E000BF61
:101640004FF0B0400068C0F3031043F22453C0F6DB
:10165000000353F82030002A184618BF002001E08C
:101660000020002351F8042C02F00C020C2A18BFB1
:101670007047086800F0030242F20040022AC0F2FC
:10168000F4000AD0032A09D14FF0B0421268D20206
:101690005CBF44F60000C0F2E810034608680A6820
:1016A000C0F30620C2F30212584301320968B0FBAE
:1016B000F2F0012202EB5171B0FBF1F07047000033
:1016C0002DE9F04F81B0002800F0188340F2900B14
:1016D0000446C5F6000B5BF8880C5BF8841C227886
:1016E00000F00C08900601F0030A27D42078C00708
:1016F0005AD0B8F1080F53D0B8F10C0F08BFBAF1A7
:10170000030F4DD04FF0B040016821F48012D4E9AE
:1017100001131A43B1F5803F026009D0B1F5041FEF
:1017200040F034824FF0B0410A6842F400120A607F
:10173000016841F48031016035E200BFB8F1000F6B
:101740001ED0B8F10C0F08BFBAF1010F18D0216AF2
:101750004FF0B0463068002900F0668140F001008B
:101760003060FFF725FC05463068800700F1848172
:10177000FFF71EFC401B02284FF00300F4D95BE387
:10178000206A002800F0BA824FF0B041A06A0A68CF
:10179000120700F1D180DBF804100909CDE000BF89
:1017A0006068002800F0AA82207880072FD5B8F161
:1017B000040F1FD0B8F10C0F08BFBAF1020F19D0F7
:1017C00021694FF0B0463068002900F0FD8140F4F7
:1017D00080703060FFF7ECFB054600BF30684005C5
:1017E0000CD4FFF7E5FB401B02284FF00300F5D9AE
:1017F00022E300BF2069002800F0808260695BF866
:101800008C1C21F0FE4141EA00604BF88C0C2078E2
:10181000000729D42078400750D4E56A002D00F055
:10182000AA82B8F10C0F40F03D81012D00F06682D4
:101830005BF8840C216B00F003028A4240F05E8268
:10184000616B00F070028A4240F05882A16B00F494
:10185000FE42B2EB012F40F05182616C00F060401B
:10186000884240F04B8286E2A069DBF80410002831
:1018700000F0EC80E06901F01002904200F0C682B6
:1018800001F00302022A00F03982C90700F0B78292
:10189000DBF8040020F00100CBF80400FFF788FB20
:1018A0000546DBF80400800740F1A882FFF780FBC3
:1018B000401B11284FF00300F3D9BDE2DBF87003A1
:1018C000C00511D4FFF70AFCFFF772FB054600BF05
:1018D000DBF87003C00507D4FFF76AFB401B022842
:1018E0004FF00300F4D9A7E2E068002800F07E8101
:1018F000852801D0052805D1DBF8000040F0040060
:10190000CBF80000FFF754FBDBF80010054641F070
:10191000010041F28836CBF8000000BFDBF8000080
:10192000800700F11381FFF743FB401BB0424FF0EB
:101930000300F3D980E200BF096801F0F00143F22F
:10194000C4498842C0F600092CD93C2101EA900024
:1019500043F22451DBF87820C0F60001085802F069
:101960000F0159F82110B0FBF1F5FFF7AFFBB0F50F
:10197000007F40F0BB804EF6BF20C0F221108542B0
:1019800040F2E08049F23F30C0F23420854240F21C
:1019900047814AF63F60C0F2EB20854240F2BA80B0
:1019A000002644E14FF0B0410A6842F008020A60A4
:1019B0000A6822F0F00202430A60616A5BF88C2C2C
:1019C00022F47F4242EA01214BF88C1C3C2101EABF
:1019D000900043F22451DBF87820C0F6000108584B
:1019E00002F00F0159F82110B0FBF1F5FFF76EFB83
:1019F000B0F5007F40F090804EF6BF20C0F221107D
:101A0000854240F2A18049F23F30C0F23420854245
:101A100040F256814AF63F60C0F2EB20854240F228
:101A20008F80002653E100BF20F001003060FFF7F7
:101A3000BFFA0546306880077FF558AEFFF7B8FA61
:101A4000401B02284FF00300F4D9F5E121F001001A
:101A5000CBF80400FFF7ACFA054600BFDBF8040042
:101A600080077FF5D7AEFFF7A3FA401B11284FF090
:101A70000300F3D9E0E100BF4FF0B040016841F04E
:101A8000080101600168D4E9093221F0F001114335
:101A900001605BF88C0C20F47F4040EA03204BF897
:101AA0008C0C23E64FF0B046306820F08070306038
:101AB000FFF77EFA022D05460CD100BF3068800189
:101AC00040F12081FFF774FA401B0A284FF0030011
:101AD000F4D9B1E13068800140F14481FFF768FA40
:101AE000401B0A284FF00300F4D9A5E14CF6BF7063
:101AF000C0F26A00854225D945F63F50C0F2C600C3
:101B0000854240F28D8046F23F60C0F2031085426C
:101B10003FF646AF022084E04CF6BF70C0F26A0088
:101B2000854211D945F63F50C0F2C600854240F2C9
:101B3000C78046F23F60C0F2031085423FF671AFA6
:101B40000220BEE000206CE00020BAE0E06840F037
:101B50000400852840F01481FFF72AFADBF8001012
:101B6000054641F0800041F28836CBF8000000BF06
:101B7000DBF8000000053FF550AEFFF719FA401BF7
:101B8000B0424FF00300F3D956E100BF4FF0B0462A
:101B90003068002920F480303060306820F4001074
:101BA000306000F00581FFF703FA05464FF0B046BC
:101BB000306880033FF5F8ADFFF7FAF9401B642861
:101BC0004FF00300F4D937E120F480703060FFF764
:101BD000EFF90546306840057FF519AEFFF7E8F9E3
:101BE000401B02284FF00300F4D925E1FFF7E0F98C
:101BF000DBF80010064621F0800041F28837CBF870
:101C0000000000BFDBF80050FFF7D2F929050546B8
:101C100040F1DE80A81BB8424FF00300F2D90BE17F
:101C2000012043F2B841C0F6000151F8206044F2AF
:101C30000007C5F60007386820F007003043386019
:101C4000FFF7B6F9054600BF386800F00700B0425C
:101C500006D0FFF7ADF9401B0228F5D94EE000BFD2
:101C60004FF0B040016841F0080101600168D4E91B
:101C7000093221F0F001114301605BF88C0C20F473
:101C80007F4040EA03204BF88C0CFFF79FFC5BF889
:101C9000881C3C2202EA910159F8011040F2080226
:101CA000B0FBF1F140F20400C2F200000068C2F2A1
:101CB00000021160FFF7A6F9002840F0BD8015E58D
:101CC000012043F2B841C0F6000151F8206044F20F
:101CD0000007C5F60007386820F007003043386079
:101CE000FFF766F9054600BF386800F00700B0420C
:101CF000CBD0FFF75DF9401B0228F5D9012001B0D8
:101D0000BDE8F08F5BF8840C48F28C01C1F2C11180
:101D100004F1300708408ECFD4E910650843104322
:101D200040EA03203843304328434BF8840C4FF0FB
:101D3000B045286840F0807028605BF8840C40F063
:101D400080504BF8840CFFF733F904462868800173
:101D500011D4FFF72DF9001B0A284FF00300F5D925
:101D60006AE000BF5BF8840C4FF6FC71CEF6FE61B2
:101D700008404BF8840C002001B0BDE8F08F00BF94
:101D8000FFF716F9DBF80010054621F0800041F25C
:101D90008836CBF80000DBF8000000057FF53DAD8C
:101DA000FFF706F9401BB0424FF00300F3D943E0C0
:101DB000FFF7FEF80546306880037FF5F5ACFFF7C6
:101DC000F7F8401B64284FF00300F4D934E000BF5B
:101DD000DBF8000041F2883620F00100CBF800006B
:101DE000DBF8000080077FF518ADFFF7E1F8401B36
:101DF000B0424FF00300F3D91EE000BFE069DBF80A
:101E0000041021F010010843CBF80400DBF80400B3
:101E100040F00100CBF80400FFF7CAF8054600BF08
:101E2000DBF8040080073FF5F5ACFFF7C1F8401B75
:101E300011284FF00300F3D901B0BDE8F08F000086
:101E4000411E0020B0EB116F1CBF012070474EF205
:101E50001002CEF2000251604EF62351CEF2000184
:101E6000F0230B70072190601160704790F8841088
:101E7000012904BF022070472421C0F8881002689D
:101E80001168136823F00103136021F0005300214F
:101E9000416613602022C0F8882080F8841008462C
:101EA00070470000B0B590F88420012A04BF0220DA
:101EB000B0BD2422C0F888200268D0F864E0D2F8CF
:101EC00000C01368BEF1000F23F001031360936894
:101ED00023F0606341EA0301916019D0936891682F
:101EE00043F28C5E490FC0F6000E43F294551EF883
:101EF0000140C0F60005695CC3F34263E400B4FB33
:101F0000F1F11EF80340EB5CE500B5FBF3F301E0F3
:101F100001210123A0F86A102021A0F86830C2F83E
:101F200000C0C0F88810002180F884100846B0BDB9
:101F3000B0B590F88420012A04BF0220B0BD24224D
:101F4000C0F888200268D0F864E0D2F800C01368B6
:101F5000BEF1000F23F001031360936823F0604388
:101F600041EA0301916019D09368916843F28C5E55
:101F7000490FC0F6000E43F294551EF80140C0F61A
:101F80000005695CC3F34263E400B4FBF1F11EF8A1
:101F90000340EB5CE500B5FBF3F301E00121012315
:101FA000A0F86A102021A0F86830C2F800C0C0F87C
:101FB0008810002180F884100846B0BDB0B582B00A
:101FC000B0B10446D0F8880028B9002084F8840015
:101FD000204600F059F82420C4F8880020680168E1
:101FE00021F001010160204600F078F9012803D1B9
:101FF000012002B0B0BD00BFA06A10B1204600F0C1
:10200000F9F82068416821F490414160816821F02D
:102010002A018160016841F0010101600020C4F8DB
:102020009000FEF7C5FF216805460A6812070CD527
:102030006FF07E4C20464FF4001100222B46CDF865
:1020400000C000F083FA78B92168086840070FD50E
:102050006FF07E4C20464FF4800100222B46CDF8D5
:1020600000C000F073FA18B1032002B0B0BD00BF89
:102070002020C4F88800C4F88C000020E0662067A7
:1020800084F8840002B0B0BD10B594B004460020BE
:102090001290CDE91000CDE90E00684604303421DD
:1020A000FEF7BAF9206844F20041C4F20001884208
:1020B00002D014B010BD00BF4FF4402002240290A3
:1020C00068460094FFF714F8002818BFFEF7E4FBF9
:1020D0004C20C5F60000C16841F40031C160C16800
:1020E00001F4003113911399016841F0010101607D
:1020F00000680EA900F00100139013980C20CDE9A0
:102100000E040020CDE91000072012904FF09040FF
:10211000FEF764FE14B010BD2DE9F04182B0044614
:10212000D0F8880020283FD10E4600294FF001004A
:102130004ED01746002A4BD04FF0000821201D46F4
:10214000C4F89080C4F88800FEF732FFA4F85470F9
:10215000A4F85670A1680746B1F5805F0FD12069D9
:10216000002814BF3046B046064608E016F8010BBA
:1021700021688862B4F856000138A4F85600B4F813
:102180005600A8B12046802100223B46009500F071
:10219000DDF9A8B9002EE9D138F8020B21686FF3F8
:1021A0005F2088620026E5E7022002B0BDE8F081EA
:1021B0002046402100223B46009500F0C7F918B1A7
:1021C000032002B0BDE8F0812020C4F88800002080
:1021D00002B0BDE8F0810000FEE70000FEE700006D
:1021E000FEE700007047000070470000FEF7E6BE03
:1021F0007047000080B5816ACA070DD18A0716D4DE
:102200004A071FD40A0728D4CA0631D48A063AD40A
:102210004A0658D542E000BF0268D0F82CC0536887
:1022200023F4003343EA0C0353608A07E8D50268BD
:10223000D0F830C0536823F4803343EA0C03536072
:102240004A07DFD50268D0F834C0536823F48023EE
:1022500043EA0C0353600A07D6D50268D0F838C0A9
:10226000536823F4004343EA0C035360CA06CDD5F8
:102270000268D0F83CC0936823F4805343EA0C030F
:1022800093608A06C4D50268D0F840C0936823F4EE
:10229000005343EA0C0393604A0614D50268D0F851
:1022A00044C05368BCF5801F23F4801343EA0C0339
:1022B000536008D1D2F804C0D0F848E02CF4C00331
:1022C00043EA0E035360090658BF80BD0168C06C25
:1022D0004A6822F400221043486080BD70B504466D
:1022E0002269D4E9021300680A436169E66911436F
:1022F000026846F6F315CCF6FF7531432A401143C8
:102300000160416848F2000E21F4405119434160D8
:10231000A269C4F2000E70451CBF216A0A4381689D
:102320004FF2FF43C1F2FF13194011438160C16AAC
:10233000D4F824C044F2004221F00F01C4F200029C
:1023400041EA0C019042C1620ED0704512D043F6B2
:102350000001C4F20101884246D18821C5F600017E
:102360000A6876A30FE000BF8821C5F6000109685E
:102370008A0804E08821C5F6000109688A0A43F248
:102380007C53C0F6000302F0030153F8212070458E
:1023900042F20040C0F2F4002DD0B6F5004F11D14A
:1023A000082A4FF0010100F2C080DFE802F0056961
:1023B00077BE6FBEBEBE7500FFF7D0F8002840F0B4
:1023C000628067E0082A4FF0010100F2AE80DFE88A
:1023D00002F0058593AC8BACACAC9100FFF7BEF876
:1023E000002840F07E8083E01022704542F20040D9
:1023F000C0F2F400D1D1082A4FF0010100F295801B
:10240000DFE802F0069314930C939393120000BF3D
:10241000FFF7A4F830B1D4F824C007E0FFF7D6F8EE
:102420000028F8D1002180E04FF4004043F26451CD
:10243000C0F6000131F81C106268B0FBF1F002EB4D
:10244000420188424FF001016FD3130398426CD8C8
:10245000010E000210EB520041F100010023FDF7D4
:10246000DFFE4FF6FF42A0F54071C0F20F0291422D
:1024700004D82168C860002157E000BF012154E062
:10248000FFF788F830B1D4F824C007E0FFF79EF8D2
:102490000028F8D1002148E04FF4004043F2645195
:1024A000C0F6000131F81C106268B0FBF1F0510871
:1024B00001EB4000B0FBF2F04FF6EF72A0F110011B
:1024C000914209D84FF6F0710140C0F342002268F2
:1024D0000844D060002128E0012126E0FFF75AF8E7
:1024E00030B1D4F824C007E0FFF770F80028F8D125
:1024F00000211AE04FF4004043F26451C0F600019D
:1025000031F81C104FF6EF72B0FBF1F0616800EB90
:102510005100B0FBF1F0A0F11001914204D8216804
:10252000C860002101E000BF01214FF00110A0664A
:10253000002208466267A26770BD00BF010000006C
:102540000400000002000000080000002DE9F04136
:10255000044600681546C2690E461140891BB1FA4F
:1025600081F14909A94240F09C80DDF81880B8F15A
:10257000000F27D018F101017CD100BFC1693140A3
:10258000891BB1FA81F14909A94240F08A80C169E9
:102590003140891BB1FA81F14909A94240F081809B
:1025A000C1693140891BB1FA81F14909A94278D149
:1025B000C1693140891BB1FA81F14909A942DDD0D5
:1025C0006FE000BFFEF7F4FC206850E8000F2168C0
:1025D00020F4D07041E80002BAB3206850E8000F40
:1025E000216820F4D07041E8000272B3206850E8FE
:1025F000000F216820F4D07041E800022AB320685F
:1026000050E8000F216820F4D07041E80002002A51
:10261000DAD11AE0206850E8020F216820F00100AA
:1026200041E80202DAB1206850E8020F216820F088
:10263000010041E8020292B1206850E8020F2168CF
:1026400020F0010041E802024AB1206850E8020F80
:10265000216820F0010041E80202002ADAD120209E
:10266000C4F88800C4F88C00002084F8840003209B
:10267000BDE8F0811F4600BFFEF79AFCC01B404535
:10268000A2D820680168490744BFC1695FEA0151C7
:102690000AD4C0693040801BB0FA80F04009A842DB
:1026A000EAD00020BDE8F0814FF40061016200BF74
:1026B00050E8000F216820F4D07041E80002C2B356
:1026C000206850E8000F216820F4D07041E8000233
:1026D0007AB3206850E8000F216820F4D07041E8F8
:1026E000000232B3206850E8000F216820F4D07057
:1026F00041E80002EAB12068DAE700BF206850E84C
:10270000020F216820F0010041E80202DAB12068DE
:1027100050E8020F216820F0010041E8020292B166
:10272000206850E8020F216820F0010041E8020211
:102730004AB1206850E8020F216820F0010041E80A
:102740000202002ADAD12020C4F88800C4F88C00E4
:10275000C4F89000002084F884000320BDE8F081D4
:10276000FEE700009AB04C25C5F60005FEF734FCE4
:1027700008AC201D4421FDF74FFE00260796CDE949
:102780000566CDE90366CDE90166D5F8B4030121FC
:1027900061F34A20C5F8B403D5F8B40300F4C0606F
:1027A00000900098222008904FF480700C904020F8
:1027B0000D90B020CDE91206204610911196FEF73B
:1027C0007FFF28B1EFF3108072B600BFFEE700BFB5
:1027D0004F20CDE9010601A802210796CDE9036645
:1027E0000596FEF78FFD28B1EFF3108072B600BF9B
:1027F000FEE700BF28684FF4802240F00200286006
:102800002868002400F00200089008982868042333
:1028100040F001002860286844F2004500F0010003
:1028200008900898C4F2000540F2700005F5604178
:10283000C2F2000080E816000121C1610721C0E951
:10284000034443610483847680F82040C0E909444E
:1028500080F82C40C0E90C41816380F83C40C4649E
:10286000FEF724F820B1EFF3108072B6FEE700BF48
:1028700040F2D400C2F200004FF4E1310C22C0E972
:102880000051C0E90244C0E90442C0E90644C0E97D
:1028900008448462FFF792FB20B1EFF3108072B618
:1028A000FEE700BF40F2D400C2F200000021FFF7B3
:1028B0003FFB28B1EFF3108072B600BFFEE700BF08
:1028C00040F2D400C2F200000021FFF7EBFA28B179
:1028D000EFF3108072B600BFFEE700BF40F2D400F5
:1028E000C2F20000FFF7C2FA20B1EFF3108072B617
:1028F000FEE700BF40F270044FF600684CF6000996
:1029000040F2D406C2F20004C4F2AF08C4F2A9092E
:102910000FF2600A08ADC2F2000600BF2046FEF7C3
:10292000C9F920466421FEF749F92046FDF7BAFFB0
:1029300007462046FEF7EEF9B8B200F0D9F90022BA
:10294000434600F023F800224B4600F0E9F900F07E
:1029500091F9024628465146FDF7DAFC30462946F1
:1029600028224FF6FF73FFF7D7FB6420FEF722FA09
:10297000D4E700BF41444320494E302076616C7556
:10298000653D2564206D560D0A0000002DE9C0410B
:1029900030B4DFF8D4C23CEA111418BF3CEA131477
:1029A00000F004811CEA111481EA030544EAD5749D
:1029B00018BF1CEA131500F0D680A4EB050404F13F
:1029C0007F7404F500344FF0004545EAC12145EA23
:1029D000C32341EA505143EA52534FEAC0204FEA21
:1029E000C222994208BF904200F0A2804FEA1365CC
:1029F0000FF27416765D4FEA134506FB05F7C7F133
:102A0000807706FB07F74FEAD737A7FB03687642C4
:102A1000A7FB06CEC8F5803838BFA8F1010807FB30
:102A200008E6A6FB028C4FF0000EE6FB03CEDCF1BD
:102A3000000CCEF1004E38BFAEF1010EA6FB0C58D3
:102A40004FF00007E6FB0E87A1FB08C6A0FB07CEF0
:102A500016EB0E064FF0000545F10005E1FB07659A
:102A600015F1E04E7EBFA4F580345FEA46066D4165
:102A700016F1800745F100054FEA172747EA056779
:102A80004FEA15254FEA0666A6F1DE46B6F1805FED
:102A900088BFD4F1004C22D9384605EBC47124F02C
:102AA000010C01EB0C11BCF1FE6F02D8F0BCBDE8CB
:102AB000008124425CBF01F5801E9EEAC47F02D4DF
:102AC000F0BCBDE80081244200F13B80A1F1C0418F
:102AD000DFF898C1F0BCBDE8004100F069BB4FEAE7
:102AE000D02040EA41504FEAD1214FEAD22242EAB7
:102AF00043524FEAD323A7FB028607FB036605FB7D
:102B000002661EEA0E0F58BFA6EB0056B6EB005643
:102B10004FEA520E4EEAC37E18EB0E0E56EB530EE2
:102B2000BAD518EB02085E417F1C55F10005B3E7EA
:102B30004FF480154FF000074FF000064FF00008EB
:102B4000AAE701F1C04156EA080C1CBF06F0004C90
:102B50004CF0804C4CF0005C4CF0140CF0BCBDE828
:102B6000004100F060BA0CEA131550EA410E0BD098
:102B700052EA430E13D000F018FA641B240486EACC
:102B8000460644EAD6741AE752EA430E00F025805E
:102B900081EA030101F00041F0BCBDE80081F0BC16
:102BA000BDE80041DFF8C8C000F002BBF0BCBDE8E2
:102BB000004170B500F076F9097EFC3E1400000477
:102BC00000F007B84FF0000081EA030101F0004176
:102BD000704781EA030100F020BAF0BCBDE8004173
:102BE0005FF828C000F0E4BAFFFDFBF9F7F5F4F256
:102BF000F0EEEDEBE9E8E6E4E3E1E0DEDDDBDAD898
:102C0000D7D5D4D3D1D0CFCDCCCBCAC8C7C6C5C4F5
:102C1000C2C1C0BFBEBDBCBBBAB9B8B7B6B5B4B30C
:102C2000B2B1B0AFAEADACABAAA9A8A8A7A6A5A4F7
:102C3000A3A3A2A1A09F9F9E9D9C9C9B9A999998BB
:102C40009797969595949393929191908F8F8E8E5E
:102C50008D8C8C8B8B8A89898888878786858584EB
:102C600084838382828181800000FF07140000102A
:102C7000140000084FEA41034FEA5353A3F5806361
:102C8000D3F11E03C8BFD3F1210C0CDD4FF000427D
:102C900042EAC12242EA505232FA03FC8CEAE17C59
:102CA000ACEBE1707047102BC4BF0020704703F5F8
:102CB000787CBCF1FF3F0FD0002B01BF7FEA210CD5
:102CC0005FEA013C5FEA505C4FF0004008BF70478C
:102CD000DFF818C000F06CBA70B500F0E3F800BF80
:102CE000000000BFC8000304E6E700BFC8000204FC
:102CF00010F0004248BF4042B0FA80F310FA03F1EE
:102D00000AD0C3F11D0303F5806302EB03524FEABF
:102D1000415002EBD12170474FF000007047000096
:102D200070B5DFF87CC11CEA111E1EBF1CEA13152A
:102D30009EEA0C0F95EA0C0F00F0788081EA0304FC
:102D40004EEAD47EAE4421EA4C1123EA4C1341F4FE
:102D5000801143F48013AEF17F7EA1FB024CA0FBF7
:102D60000365361955EB0C05A1FB034C4CF1000330
:102D7000A0FB021C16EB0C06654153F1000309424F
:102D800018BF46F0010613F4007F0BD14FEA033160
:102D90004FEA053041EA155140EA165034036FF00E
:102DA00003020AE04FEAC3214FEAC52041EA555128
:102DB00040EA5650F4026FF0020202EB2E4201EBA1
:102DC000025585EACE7126460BD005465FEA440CD3
:102DD00018BF24F0004450F1000041F1000120EA46
:102DE000D47040F2FD7C624500D270BD08BF11F482
:102DF000801FFAD0A84214BF4FF080444FF04044E7
:102E0000002E08BF0024BEF1806FD8BF01F1C04181
:102E1000A8BFA1F1C04144F0130CA8BF4CF0805CE6
:102E2000BDE8704040F3FF8000F0C2B90CEA131512
:102E30009EEA0C0F18BF95EA0C0F19D091EA030F08
:102E400048BF4EF0010E50EA410418BF52EA430455
:102E500009D000F0AAF864194FEA044E86EA460643
:102E60004EEAD67E77E74FF000004FEACE7170BD94
:102E700000F018F88900013E1300000400F005B8C6
:102E800000F007B852EA430C06D081EA030100F0D3
:102E9000C4B850EA410CF8D15FF824C000F088B9FA
:102EA0000000FF070EF1020E2EF0030E5EF8046B19
:102EB000012841EB010414F5001418BFB4F5801F7C
:102EC00023D3364208D4012A43EB030515F5001538
:102ED00018BFB5F5801F18D301EB010C1CF5801F3E
:102EE00016D2364204D403EB030C1CF5801F0FD21C
:102EF000002C10D14FEAD17C0CEB4C0C0CF1020CE5
:102F0000002D08BF4CEBD37C07E04FF0090C04E028
:102F10004FF0080C01E04FEAD37C0CEB4C050EF1AE
:102F2000040E26FA05F606F00706B6F1040C06D2E2
:102F30000EEB860CBDE870404CF0010C6047DFE8FA
:102F40000CF0222413025EF804CC1B2D08D1002CB7
:102F500088BFB4F5801F34BF4CF4804C4CF4004C57
:102F6000BDE8704000F024B9002C88BFB4F5001F04
:102F700024BF1946104670BD4FF00041A1F5002155
:102F80004FF0000070BD19461046012851EB0104B6
:102F900018BFD4F5001484BF5EF804CC2CF0806C0C
:102FA000BDE8704000F2DB80704780B54FF003064B
:102FB0005C004FEA3606640D4FEA03334FEA1333E1
:102FC00018BF43F480131CD104F1010453EA125ECC
:102FD00002BF13460022203C1B4202BF130B120506
:102FE000143CB3FA83FEAEF10B0E03FA0EF3A4EB1E
:102FF0000E04CEF1200C22FA0CFC43EA0C0302FA78
:103000000EF20FB40CBC03BC16F0010F18BF25461E
:10301000CED180BD80B50126F3E70808A0F50011E8
:103020004FEA3101704703B42DE90C50FDF796FAD1
:10303000BDE80C50034603BC1B6813F0807F1EBF25
:1030400001F000410020704713F4006F40F0A980A8
:10305000094248BF4CF4803C4FF4C0634FEA115220
:1030600003F1010321EA025122F400629A1A48BFD7
:103070006FF0FE0241F48011352A3CD830D0152A79
:103080001ED3203A0CD9C2F12003002821FA02F005
:1030900001FA03F218BF42F001024FF0000130E0E4
:1030A000C2F1000302F1200201FA03F120FA02F258
:1030B00041EA020100FA03F208464FF0000120E065
:1030C00010B4C2F1200300FA03F401FA03F320FA6A
:1030D00002F043EA000021FA02F1224610BC10E09F
:1030E00050EA01324FF000004FF000014FF0004273
:1030F00018BF521C05E04FF001024FF000014FF0E5
:1031000000001CF4803F2CF4803C18BF41F00041CB
:1031100012421DD0520003D310D0401C41F10001D7
:1031200003B42DE90C50FDF719FABDE80C50024626
:1031300003BC136843F00803136070475FEAAC7286
:10314000EBD4EDD1401C41F1000120F00100E7E794
:103150001CF0804F08BF70472CF0004CE0E703B430
:103160002DE90C50FDF7FAF9BDE80C50034603BCFD
:103170001B6813F0807F1EBF01F0004100207047E4
:1031800013F4006F08BF70472DE9F050FFF742FFBE
:1031900004F5C064A4F10104314301EB0451BDE81E
:1031A000F0504CF0005C4CF0800C00F03DB9000099
:1031B0001CF0700F08BF0A460FB403B42DE90C5081
:1031C000FDF7CCF9BDE80C50024603BC11680CF0C9
:1031D000405030EA814318BF4CF0804C4FEA4C031A
:1031E0004FEAD36323EA112310EA814F18BF23F07B
:1031F000100341EA030101F0E0734CEA030C116093
:103200000CF00F030A2B1DBF082B0CF070034CEAC7
:10321000C30C4FF4003304BF33EA0C034CF4400CEE
:103220001CF0005F14D11CF0805F0BD11CF0804FAC
:1032300031D11CF0006F12D111F4807F0FBC47D048
:1032400000F0F2B811F4806F0FBC2BD000F0ECB896
:1032500011F4006F0FBC08BF704700F0E5B811F41F
:10326000007F0FBC40F0E0801CF0400F1EBF4FF00D
:10327000004040F0010070471CF0100F14BF81EABD
:10328000030242400CF00F000A2808BF4FF0FF3243
:103290004FF000030FE011F4805F0FBC08BF7047D0
:1032A00000F0C2B82CF0805C1CF0800F14BF01F05D
:1032B000004200F0004202F000421CF0100F1DBF5F
:1032C0000FF28C0003C81143234808BF1043704716
:1032D0001CF0400F40F028801CF4404F1BD01CF421
:1032E000004F1CBF194610460CF4807218BF8CEAC0
:1032F000520C1CF0800F0CBF40F4800041F4002100
:103300008CEADC0313F0100F1CBF2CF00F0C4CF0F8
:10331000080C00F030B81CF0100F1ABF0FA393E890
:103320000300104800F027B81CF0800F14BF01F014
:10333000004200F000421CF0100F1BBF07A393E8EF
:1033400003000848114308BF104300F014B800BF41
:10335000000000000000F07F0000807F00000000FF
:103360000000F87F0000C07F10B5FDF7F7F84FF0C0
:103370000001016010BD0CF00F03092B08BF0820ED
:1033800000F064800A2B32D0082B18BF704708BFAA
:103390001CF0400F31D01CF4803F23D11CF0200FD3
:1033A00011D11CF0100F0BBF02460A466FF000400F
:1033B0006FF0004118BF4FF0FF3012F0004F1CBFFC
:1033C000C043C94370471CF0100F0CBF02460A46A9
:1033D00012F0004F4FF0FF304FF0FF311CBFC043E1
:1033E000C94370474FF000004FF0000170471CF0D8
:1033F000400F18BF4FF0004070471CF0100F08D06E
:1034000000F07F4220F0704342EAD3014FEA43705C
:10341000704700F0604021F07F4242EA000201F074
:103420007F4040EA727070472DE900502DE900504E
:10343000FDF7C2F8BDE80050BDE800500CF00F03E6
:1034400093F0090F18BF7047AFF300801CF4801F82
:103450002DD01CF4E02F09D010F0080F02D1D0F1CC
:10346000020070476FEACC31490070474FF060416D
:1034700011EA407028BF40F0405003B42DE90C50D1
:10348000FDF76CF8BDE80C50844603BCDCF8003056
:1034900023F0704343EA0003CCF80030EFF30082DE
:1034A00022F0704242EA000282F3008870471CEA70
:1034B000004018BF0120704700000000010000001C
:1034C00002000000010000000300000005000000F1
:1034D0000100000001000000060000000A000000DA
:1034E00020000000020000000400000008000000AE
:1034F00010000000400000008000000000010000FB
:1035000000020000000000000000000000000000B9
:1035100000000000010000000200000003000000A5
:1035200004000000A0860100400D0300801A060080
:1035300000350C0040420F0080841E0000093D0051
:1035400000127A000024F40000366E010048E80101
:10355000006CDC0200000000000000000000000021
:1035600000000000010002000400060008000A003C
:103570000C0010002000400080000001000000004E
:103580000400000002000000080000000101010327
:10359000070100000804020408010101C035000809
:1035A000000000201000000074010008D035000861
:1035B00010000020600700009001000800000000DB
:1035C000010000001000000000093D0000000000A4
:0400000508000139B5
:00000001FF
